:020000040800F2
:10000000C81A0020C51600080505000807050008E5
:100010000B0500080F05000813050008000000008C
:1000200000000000000000000000000017050008AC
:1000300019050008000000001B0500081D05000848
:10004000DF160008DF160008DF160008DF160008BC
:10005000DF160008DF160008DF160008DF160008AC
:100060007D700008DF160008DF160008A7080008EA
:10007000DF160008DF160008DF160008DF1600088C
:10008000DF160008DF1600080B0A0008DF1600085C
:1000900035630008DF160008DF160008DF160008C9
:1000A000DF160008DF160008DF160008DF1600085C
:1000B00079500008B946000861500008DF160008B2
:1000C000DF160008DF160008DF160008DF1600083C
:1000D000DF1600083B5A0008DF160008DF1600088C
:1000E000DF160008DF160008DF160008DF1600081C
:1000F0006D490008DF16000847480008DF160008B1
:10010000DF160008DF160008B54B0008DF160008F0
:10011000DF160008DF160008DF160008FB4B00089A
:10012000DF160008DF160008DF160008DF160008DB
:1001300000F002F800F05FF80AA090E8000C82449A
:100140008344AAF10107DA4501D100F054F8AFF277
:10015000090EBAE80F0013F0010F18BFFB1A43F0A5
:100160000103184704F3000024F300000A444FF091
:10017000000C10F8013B13F0070408BF10F8014B06
:100180001D1108BF10F8015B641E05D010F8016B4B
:10019000641E01F8016BF9D113F0080F1EBF10F8AF
:1001A000014BAD1C0C1B09D16D1E58BF01F801CBD2
:1001B000FAD505E014F8016B01F8016B6D1EF9D555
:1001C0009142D6D37047000000230024002500266A
:1001D000103A28BF78C1FBD8520728BF30C148BFAA
:1001E0000B60704764290AF02987002070471FB50B
:1001F0001FBD10B510BD0BF0F1F81146FFF7F7FF6A
:1002000000F097F80BF00FF903B4FFF7F2FF03BC0F
:1002100003F08AFC30BF72B662B680F3088870477C
:1002200010B50821AC4802F010F840B10421AB48E9
:1002300002F00BF818B10020A94908701AE0082153
:10024000A54802F002F840B90421A44801F0FDFFDE
:1002500018B10220A24908700CE008219E4801F064
:10026000F4FF38B104219D4801F0EFFF10B90120DF
:100270009B49087010BD10B5002400BF17E09948D5
:1002800030F81400984901EB8411C887964800EBB8
:100290008411202000F033FB934800EB84112020D0
:1002A00000F0DFFB914921F81400601CC4B2062C59
:1002B000E5DB10BD10B58B49032000F036FB894902
:1002C000891C042000F031FB8649091D052000F03F
:1002D0002CFB8449891D062000F027FB8149083149
:1002E000072000F022FB7F490A310E2000F01DFBA1
:1002F000FFF7C1FF10BD08B50121082002F034FA54
:100300000820ADF8000048208DF8030069467248C7
:1003100001F008FF0121082002F026FA0420ADF8C0
:10032000000048208DF8030069466C4801F0FAFE91
:1003300008BD08B503F08EFB0121042002F014FA79
:100340000121082002F010FA0121102002F00CFA1D
:100350000121202002F008FA0121084602F004FAE7
:100360000121634801F0AFFF00F0CCFCFFF7C3FFB1
:100370004FF4FA3003F0F6FB03F09CFD03F0CCFDE4
:10038000022003F03FFC002141F61F4004F054FD21
:100390004FF4165005F002FB04F0A6FD04F0F1FD49
:1003A00000221146104600F0F9F90121514801F0F0
:1003B000AAFA4FF47A720321084604F0DDFA032109
:1003C000052004F076FC00F04DFF4FF4AF6340F6DB
:1003D000C4124FF4FA71002000F0E4FD09230E224C
:1003E0004549002000F0B9FF4FF4AF6340F6C41256
:1003F0004FF4FA71012000F0D5FD09230E223E4989
:10040000012000F0AAFF01E0FFF754FF3748818880
:10041000002000F0F5FF0028F6D001E0FFF74AFFCA
:100420003248C188012000F0EBFF0028F6D04FF4DD
:10043000FA7003F04CFB04F033FE0AF080F80AF087
:1004400092F803F096FF47214FF6FF7004F0AEF8E4
:1004500000200623032202210090012005F014FD54
:1004600005F0B2F836E025480078012804D105F0FF
:1004700044FA0020214908702148007810B90AF098
:10048000B7FA01E00AF017FCFFF714FF174882885B
:1004900041880023184600F033FF1448C288418881
:1004A0000023012000F02CFF1049488804F049F88F
:1004B0000E49088900F0EAFA0C49488900F0BCFBB3
:1004C00000F043FC00F091FC00F0B3FCFFF7A8FE45
:1004D00001F033F8C7E70000000C014000140140B0
:1004E0003A0000205C0200209C02002068020020EC
:1004F00000023000002401406F12833A3C000020CB
:1005000007000020704700BFFEE700BFFEE700BF06
:10051000FEE700BFFEE77047704770477047000076
:100520000CB50020019000906C48006840F48030C9
:100530006A49086000BF6948006800F40030009014
:100540000198401C0190009818B90198B0F5A06F6F
:10055000F1D16248006800F4003010B10120009031
:1005600001E0002000900098012843D15C48006819
:1005700040F010005A4908600846006820F0030067
:1005800008600846006840F0020008605348406870
:10059000524948600846406848600846406840F450
:1005A000806048600846406820F47C104860084637
:1005B000406840F4E81048600846006840F08070E9
:1005C000086000BF4548006800F000700028F9D0BE
:1005D0004248406820F003004049486008464068AF
:1005E00040F00200486000BF3C48406800F00C004A
:1005F0000828F9D10CBD10B5FFF792FF10BD10B55A
:100600003648006840F001003449086008464068F8
:10061000344908403149486008460068324908407A
:100620002E4908600846006820F4802008600846CB
:10063000406820F4FE0048604FF41F008860FFF718
:10064000DAFF4FF000602949086010BD10B50021A5
:1006500000200022214B5B6803F00C0121B104292A
:1006600006D0082928D107E0214B224C236027E03F
:100670001F4B204C236023E0184B5B6803F4701081
:10068000164B5B6803F48032022303EB904022B9DF
:10069000194B4343174C23600DE0104B5B6803F488
:1006A000003323B1144B4343124C236003E0104B3F
:1006B0004343104C236003E00D4B0E4C236000BFFE
:1006C00000BF064B5B68C3F303130C4CE15C094BA2
:1006D0001B68CB40074C236010BD00000010024097
:1006E000002002400000FFF8FFFFF6FE08ED00E0EA
:1006F00000127A006000002000093D006400002024
:1007000008B510208DF803003020ADF8000001205E
:100710008DF802006946FE4801F004FD08BD08B5E9
:100720004FF4806000F0EEFF0B208DF800000720F2
:100730008DF8010000208DF8020001208DF80300E3
:10074000684600F0E4FF0121084602F000F8F14895
:1007500001F0D0FAF048F1490860F1484860002003
:1007600088600620C8600020086180204861400041
:1007700088618000C8612020086200024862002071
:100780008862E44801F058FB01220221E14801F0AF
:100790008AFB0121DF4801F07AFB08BD70B586B005
:1007A00004460E461546DF4805610121480201F066
:1007B000DBFF0020019001208DF808008DF8090072
:1007C0004FF4602003900020049006208DF8140060
:1007D00000208DF8030003208DF80200012C01DBBE
:1007E00006B070BDF820ADF800006946CE4801F0B3
:1007F00099FC1020ADF800006946CC4801F092FC4D
:1008000001A9C5484C3801F012F807230122032141
:10081000C1484C3801F0A3F8072302220421BE4846
:100820004C3801F09CF8072303220521BA484C38C4
:1008300001F095F8072304220621B7484C3801F04F
:100840008EF8072305221946B3484C3801F087F883
:10085000072306220E21B0484C3801F080F8FFF73C
:100860005EFF0121AC484C3801F018F80121AA487C
:100870004C3801F008F8A8484C3801F026F800BFC1
:10088000A5484C3801F026F80028F9D1A2484C3888
:1008900001F02AF800BFA0484C3801F02AF80028DF
:1008A000F9D100BF9CE710B50024022001F029FB1C
:1008B00078B1012001F039FB00BF08E0984830F81A
:1008C00014109848801C20F81410601CC4B2062C28
:1008D000F4DB10BD30B502460B460021002000BFFE
:1008E0000AE003EB41042CB133F81140551A2C41B6
:1008F0000444A0B24C1CE1B29142F2DB30BD02468E
:10090000002000BF0DE001EB400343B1431C01EBAD
:10091000430323B1431C31F8133021F81030431C3A
:10092000D8B2531E8342EEDC704730B504460D4604
:10093000032C0CD17E491020FFF7E1FF7948408855
:100940007B49C8831020FFF7C5FF28805CE0042C9A
:100950000FD1774920311020FFF7D1FF71488188EE
:100960007348C18700F120011020FFF7B3FF2880F2
:100970004AE0052C10D16E4940311020FFF7BFFF2F
:100980006848C1886A48A0F85E1000F14001102054
:10099000FFF7A0FF288037E0062C10D164496031B2
:1009A0001020FFF7ACFF5F4801896148A0F87E1076
:1009B00000F160011020FFF78DFF288024E0072C54
:1009C00010D15B4980311020FFF799FF55484189CC
:1009D0005748A0F89E1000F180011020FFF77AFF21
:1009E000288011E00E2C0FD15149A0311020FFF7C3
:1009F00086FF4C4881894E48A0F8BE1000F1A00146
:100A00001020FFF767FF288030BD10B500244FF499
:100A1000087141484C3801F0F3F870B13E484C3849
:100A200001F004F804463F480169204688474FF426
:100A3000087139484C3801F0F5F84FF408713D4819
:100A400001F0DEF860B13B4800F0F0FF04464FF4DF
:100A50000871384801F0E6F83248416A2046884774
:100A600010BD10B502460B460021002400BF07E070
:100A700003EB410010B133F811000444481CC1B22B
:100A80009142F5DBB4FBF2F4A0B210BD2DE9F05FAA
:100A900083464FF0000A58460CF01AF8804642464A
:100AA0000B46002024490BF047FE06460022234B4C
:100AB0000CF05EF804460BF0C7FF2149088021487E
:100AC000D0F81401098888426CDB1E48D0F89C01DC
:100AD0001B490988884242DB4FF0330A3BE0194842
:100AE00000EBCA00406816490988884231DD154983
:100AF0000AF1010001EBC0004068114909888842F1
:100B000027DC10490AF1010051F830000E491DE0C0
:100B1000000C0140080002404C2401405004002019
:100B2000440400201C040020000801400010014083
:100B30007C040020002801400000C0400000594013
:100B400078000020D4D900087C0000200860BDE8AF
:100B5000F09F0AF1010ABAF1440FC0DB6AE04FF0DE
:100B6000220A1BE0F74800EBCA004068F6490988F2
:100B7000884211DDF3490AF1010001EBC000406831
:100B8000F1490988884207DCEE490AF1010051F871
:100B90003000EE490860DAE70AF1010ABAF1330FD2
:100BA000E0DB47E0E748D0F88C00E7490988884255
:100BB00020DD4FF0110A19E0E24850F83A00E2490E
:100BC0000988884210DDDF490AF1010051F8300040
:100BD000DD490988884207DCDA490AF1010051F849
:100BE0003000DA490860B2E70AF1010ABAF1220FCF
:100BF000E2DB1FE04FF0000A19E0D24850F83A005B
:100C0000D1490988884210DDCE490AF1010051F826
:100C10003000CD490988884207DCCA490AF1010041
:100C200051F83000C949086091E70AF1010ABAF1A8
:100C3000110FE2DB00BF8AE72DE9F041044640F6E0
:100C4000C410844214DB20460CF086FC0746C048E2
:100C5000016838460CF0C8FC0646BE4801683046BC
:100C60000CF0BFFD05460CF023FCBB49086044E0D6
:100C7000B4F5C86F14DB20460CF06EFC0746B7488D
:100C8000016838460CF0B0FC0646B54801683046AD
:100C90000CF0A7FD05460CF00BFCAF4908602CE0FA
:100CA00040F2DE30844214DB20460CF055FC07464F
:100CB000AC48016838460CF097FC0646AA48016823
:100CC00030460CF08EFD05460CF0F2FBA2490860A0
:100CD00013E020460CF040FC0746A4480168384663
:100CE0000CF082FC0646A248016830460CF079FD03
:100CF00005460CF0DDFB98490860BDE8F081964898
:100D00000068704708B528208DF803001020ADF862
:100D1000000001208DF802006946964801F002FAB1
:100D200010208DF803002020ADF8000001208DF880
:100D3000020069468F4801F0F5F908BD00BF0100C7
:100D4000A0F1010290B2FAD1704710B500248A4890
:100D5000008805283FDB002087490880102185484E
:100D600001F073FA00283AD10520FFF7E7FF00BF32
:100D70001AE08248006840008049086020217D48D0
:100D800001F07DFA0520FFF7D9FF2021794801F015
:100D900078FA1021774801F058FA78490968084331
:100DA00076490860601CC4B2182CE2DB202171482F
:100DB00001F065FA0520FFF7C1FF7048006880F474
:100DC00000006F49086020216A4801F05AFA0020AB
:100DD0006A49086003E02021664801F052FA66483B
:100DE0000088401C6449088010BD2DE9F047644824
:100DF000006864490968884216D961490968614AEE
:100E00001268881A0BF064FE064600225E4B0BF057
:100E1000AFFE044600225D4B0BF08EFC80460BF0CB
:100E2000E3FD5B49086002E0002059490860BDE825
:100E3000F08738B5454800680A2190FBF1F40C2092
:100E40000223224600210090084603F026FA3F487C
:100E500000680A2190FBF1F201FB12040C2001232F
:100E60002246002100900D2003F017FA49A200212C
:100E7000172003F05CFA38480068642190FBF1F415
:100E80000C200123224600210090282003F005FABF
:100E900031480068642190FBF1F201FB12000A2145
:100EA00090FBF1F40C200123224600210090302019
:100EB00003F0F3F9284800680A2190FBF1F201FBE6
:100EC00012040C200123224600210090382003F058
:100ED000E4F931A20021402003F029FA2C480068EF
:100EE000642190FBF1F40C200123224600210090A4
:100EF0005A2003F0D2F926480068642190FBF1F2F1
:100F000001FB12000A2190FBF1F40C200123224680
:100F100000210090622003F0C0F91D4800680A21FA
:100F200090FBF1F201FB12040C2001232246002168
:100F300000906A2003F0B1F918A20021722003F09A
:100F4000F6F938BDD4D90008780000207C000020D4
:100F50008400002088000020A40000208C000020D5
:100F60009000002094000020980000209C000020A9
:100F7000A0000020000C0140B8000020AC000020C0
:100F8000A8000020B00000200000F03F00205A40E0
:100F9000B4000020430000004D4D00006700000039
:100FA000704700002DE9F05F0446894692469B4653
:100FB00004EB8400FE4901EB0010A0F81AA004EB3A
:100FC000840001EB0010A0F8189004EB840001EB02
:100FD0000010A0F816B004EB8401F54A02EB0111F1
:100FE000C88A0BF075FD0746F24AF34B0BF0C0FDC3
:100FF00005460BF029FD04EB8401ED4A02EB0111DB
:101000008883BDE8F09F002000BF27E100EB80014E
:10101000E74A02EB0111097929B300EB800102EBE9
:1010200001114989491C00EB8002E14B03EB0212DC
:10103000518100EB80011A4602EB0111498900EB56
:10104000800203EB0212128B914213DB002100EBB2
:10105000800203EB02125181012100EB800203EBBD
:101060000212117006E0002100EB8002D04B03EB6E
:101070000212518100EB8001CD4A02EB0111097887
:1010800019B300EB800102EB01118989491C00EBC7
:101090008002C74B03EB0212918100EB80011A46DC
:1010A00002EB0111898900EB800203EB0212528BE3
:1010B00091420ADB002100EB800203EB02129181D6
:1010C00000EB800203EB0212117000EB8001B84AC2
:1010D00002EB0111497929B300EB800102EB011108
:1010E000098A491C00EB8002B14B03EB021211820A
:1010F00000EB80011A4602EB0111098A00EB800225
:1011000003EB0212128B914213DB002100EB8002F1
:1011100003EB02121182012100EB800203EB0212A9
:10112000517006E0002100EB8002A14B03EB02129C
:10113000118200EB80019E4A02EB0111497819B33C
:1011400000EB800102EB0111C989491C00EB800210
:10115000974B03EB0212D18100EB80011A4602EBA0
:101160000111C98900EB800203EB0212528B9142FC
:101170000ADB002100EB800203EB0212D18100EBBD
:10118000800203EB0212517000EB8001884A02EBEF
:101190000111897901B300EB800102EB0111498A49
:1011A000491C00EB8002824B03EB0212518200EBE0
:1011B00080011A4602EB0111498AC82918DB002177
:1011C00000EB800203EB02125182012100EB80024E
:1011D00003EB021291700BE0002100EB8002744BD4
:1011E00003EB0212518200EB800203EB02129170BA
:1011F00000EB80016E4A02EB0111C97901B300EBEB
:10120000800102EB0111898A491C00EB8002684BC6
:1012100003EB0212918200EB80011A4602EB0111EE
:10122000898AC82918DB002100EB800203EB021237
:101230009182012100EB800203EB0212D1700BE0DE
:10124000002100EB80025A4B03EB0212918200EB6B
:10125000800203EB0212D170411CC8B20228FFF6D3
:10126000D5AE70472DE9F041002400BF3FE04FF4B8
:10127000FA7004EB84014E4A02EB01110883C000AE
:1012800004EB840102EB0111C88240F6B83004EB94
:10129000840102EB01114883002004EB840102EB7E
:1012A0000111488404EB840102EB0111088204EB74
:1012B000840102EB0111C88A0BF00AFC07463F4A81
:1012C0003F4B0BF055FC05460BF0BEFB04EB8401D5
:1012D000374A02EB0111888304EB840002EB001013
:1012E00000F10801012003F0EFFC601CC4B2022CE5
:1012F000BDDBAFF2ED21032003F01EFCBDE8F08161
:1013000030B500EB80042A4D05EB0414628400EB39
:10131000800405EB0414A38400EB800405EB0414A3
:10132000218430BD70B5049C31B100EB8005204EA6
:1013300006EB05152D780D7032B100EB80051C4EC3
:1013400006EB05156D78157033B100EB8005184E6E
:1013500006EB0515AD781D7070BD2DE9FF4F83B00C
:10136000044691469A4648460CF0F6F801900499D6
:101370000CF03AF983464FF08B410CF035F90290AE
:101380000BF006FF05464FF066320E4B0BF0D4F91A
:1013900007460BF059FB04EB8401054A02EB0111EF
:1013A000088550460CF0D8F8019004990CE0000034
:1013B0003C050020AC1C5A643BDFD73F022B87164C
:1013C000D9CEE73F66660A400CF00EF94FF08B412C
:1013D00002900CF009F983460BF0DAFE07464FF055
:1013E0006632B44B0BF0A8F905460BF02DFB04EB6D
:1013F0008401B14A02EB0111488507B0BDE8F08FC6
:1014000070B504460D460026AC48005D20B10128A9
:1014100017D0022814D16BE004EB8401A64A02EB3A
:101420000111087AC82103F073FC04EB8401A24A7D
:1014300002EB0111087A03F07AFC01209F4908555C
:1014400078E004EB84019C4A02EB0111087A03F076
:101450008BFC98B104EB8401974A02EB0111087AE6
:1014600003F073FC04EB8401934A02EB0111087A48
:1014700003F096FC02209149085538E0002090497D
:10148000087019E004EB84008B4901EB00103C303C
:101490008B490978491C30F8111004EB8400864A06
:1014A00002EB00103C30864A127820F81210844873
:1014B0000078401C82490870814800780728E1DBE9
:1014C00004EB84007C4901EB0010A0F84A5004EBC7
:1014D00084000A4602EB001000F13C010820FFF7EF
:1014E000F9F904EB8401744A02EB0111088621E04A
:1014F000012604EB8400704901EB0010008E04EB20
:1015000084016D4A02EB0111898B084404EB8401CC
:1015100002EB0111C88304EB8400114601EB0010BB
:10152000008E04EB840102EB0111C88500206349A1
:10153000085500BF00BF304670BD002000BFB3E0BB
:1015400000EB80015C4A02EB0111498C00EB800248
:10155000594B03EB0212D28D891A00EB800203EB88
:101560000212916300EB80011A4602EB0111496BF4
:1015700000EB800203EB0212926B114400EB80023D
:1015800003EB0212516300EB80011A4602EB0111DA
:10159000498C00EB800203EB0212D18500EB800145
:1015A0001A4602EB0111496B002912DD00EB8001A4
:1015B00002EB0111496B00EB800203EB0212928BEC
:1015C000914206DB012100EB800203EB0212117154
:1015D00006E0002100EB8002374B03EB0212117191
:1015E00000EB8001344A02EB0111498C00EB8002D0
:1015F000314B03EB0212D28B914206DB012100EB4F
:10160000800203EB0212517106E0002100EB800220
:10161000294B03EB0212517100EB8001264A02EBC9
:101620000111098D29B100EB800102EB0111498DF7
:1016300001B9704700EB80011F4A02EB0111098CD0
:1016400000EB80021C4B03EB0212128D914206DB71
:10165000012100EB800203EB0212917106E00021F0
:1016600000EB8002144B03EB0212917100EB80013E
:10167000114A02EB0111098C00EB80020E4B03EBC7
:101680000212528D914206DC012100EB800203EB35
:101690000212D17106E0002100EB8002064B03EB41
:1016A0000212D171411CC8B20228FFF649AF00BF37
:1016B000BFE7000066660A403C050020BA00002033
:1016C000BC0000200948804709480047FEE7FEE7C4
:1016D000FEE7FEE7FEE7FEE7FEE7FEE7FEE7FEE7E2
:1016E00004480549054A064B70470000FF050008FD
:1016F00031010008C8140020C81A0020C8160020B4
:10170000C816002031490143314A1160704770B555
:10171000002100230F22C47804B32D4C246804F464
:10172000E064C4F5E064210AC1F10403CA404478CE
:1017300004FA03F18478144021430901254C06780A
:10174000A155047804F01F050124AC4005786D1103
:10175000AD0005F1E025C5F8004109E0047804F08A
:101760001F050124AC401C4D0678761145F8264033
:1017700070BD1A4A0A400243154B1B1F1A6070477E
:1017800039B1134A121D12680243114B1B1D1A6016
:1017900006E00F4A121D126882430D4B1B1D1A6092
:1017A0007047042808D14FF0E021096941F0040195
:1017B0004FF0E022116107E04FF0E021096921F0CC
:1017C00004014FF0E0221161704700000000FA05AB
:1017D0000CED00E000E400E080E100E080FFFF1F8E
:1017E00010B50446FA48844208D10121401500F0A2
:1017F000D5FF0021601500F0D1FF17E0F5488442C5
:1018000008D10121001500F0C9FF0021201500F0CA
:10181000C5FF0BE0F048844208D10121C80300F065
:10182000BDFF00214FF4004000F0B8FF10BD30B5FF
:101830000246002000235068E84C20400D790C68D7
:1018400044EA0524204350609068E54C2040D1E9EB
:1018500002542C434D7944EA450420439060D06AF9
:1018600020F470000C7C641EE4B2234340EA035071
:10187000D06230BD00210160017141718160C160A1
:1018800001210174704721B1826842F00102826037
:1018900003E0826822F001028260704721B1826811
:1018A00042F48072826003E0826822F48072826077
:1018B000704710B50023CBB21AB144681C43446092
:1018C00002E044689C43446010BD816841F0080117
:1018D00081607047014600208A6802F008020AB160
:1018E000012000E000207047816841F00401816020
:1018F0007047014600208A6802F004020AB1012004
:1019000000E00020704721B1826842F4A0028260AA
:1019100003E0826822F4A002826070470146002042
:101920008A6802F480020AB1012000E000207047BA
:1019300010B50A4600210023416821F46041531E7E
:1019400041EA4331416010BD21B1426842F4006276
:10195000426003E0426822F4006242607047F0B5E2
:1019600004460D4600200021092D11DDE068A5F197
:101970000A0606EB4607072606FA07F18843A5F193
:101980000A0606EB460603FA06F10843E0600CE09F
:10199000206905EB4507072606FA07F1884305EBA2
:1019A000450603FA06F108432061072A0FDA606B47
:1019B000561E06EB86071F2606FA07F18843561EB9
:1019C00006EB860605FA06F10843606322E00D2A5D
:1019D0000FDA206BD61F06EB86071F2606FA07F1E3
:1019E0008843D61F06EB860605FA06F108432063F6
:1019F00010E0E06AA2F10D0606EB86071F2606FA44
:101A000007F18843A2F10D0606EB860605FA06F1FA
:101A10000843E062F0BD21B1826842F48012826026
:101A200003E0826822F48012826070470146C86C2D
:101A300080B2704766484C300068704721B14268F8
:101A400042F48062426003E0426822F480624260B5
:101A5000704721B1426842F48052426003E042681C
:101A600022F48052426070470A460021816821F4C6
:101A7000E04111438160704721B1826842F4004225
:101A8000826003E0826822F400428260704721B1E4
:101A9000826842F40212826003E0826822F4021239
:101AA00082607047014600208A6802F400120AB181
:101AB000012000E000207047F0B5044615460020E4
:101AC00000220026092911DDE068A1F10A0707EBD1
:101AD000470C072707FA0CF29043A1F10A0707EB1E
:101AE000470703FA07F21043E0600CE0206901EBBE
:101AF000410C072707FA0CF2904301EB410703FA68
:101B000007F210432061A06BC0F30156EF1C06F1F1
:101B1000010CA7EB0C0707EB870C1F2707FA0CF249
:101B20009043EF1C06F1010CA7EB0C0707EB8707AE
:101B300001FA07F21043A063F0BD10B50A46002178
:101B40000023816B21F44011531E41EA035181634C
:101B500010BD08B5002300930090009B0B44009338
:101B6000009B1A6008BD08B5024600200090009254
:101B700001F12800009B184400900098006880B292
:101B800008BD0A4600214168164B194011434160C7
:101B900070474162826270470A460021416821F025
:101BA0001F0111434160704740B10949083109687C
:101BB00041F40001064A0832116007E00449083187
:101BC000096821F40001024A0832116070470000E0
:101BD0000024014000280140003C0140FFFEF0FFCE
:101BE000FDF7F1FFFFFD3FFF0246002013680B40A9
:101BF0000BB1012000E000207047CA43026070472B
:101C000070B502460020002300240B125568CEB2A6
:101C100005EA060415681D4015B10CB1012000E06D
:101C2000002070BD00220A12D343036070470000F9
:101C300010B5012000F0CCFD002000F0C9FD10BD62
:101C40002A49086070472949091F086070472749D9
:101C500084310860704701460020254A10884FF6FD
:101C60007F4210400843224A1080704701460020FE
:101C70001F4A10884FF68072104008431C4A10809B
:101C8000704708B500220092194A2C3A0092009A37
:101C900002440092009A116008BD08B50146002078
:101CA000009013482C380090009808440090009849
:101CB000008808BD0D489C300068C0B270470C48D1
:101CC0000830008840F00100094908310880704759
:101CD0000648A0300068C0B2704705480830008848
:101CE00040F00200024908310880704704860D4226
:101CF0002C6C004001684FF6FE721140016000211B
:101D0000016041608160C1608D49884208D18C4981
:101D10000839496841F00F01894A083A51608AE060
:101D200087491431884208D185490839496841F00A
:101D3000F001834A083A51607DE0814928318842A8
:101D400008D17F490839496841F470617C4A083AF2
:101D5000516070E07A493C31884208D178490839AD
:101D6000496841F47041764A083A516063E0744929
:101D70005031884208D172490839496841F47021CC
:101D80006F4A083A516056E06D496431884208D183
:101D90006B490839496841F47001694A083A516051
:101DA00049E067497831884208D16549083949686E
:101DB00041F07061624A083A51603CE061498842F2
:101DC00006D1011F096841F00F01021F116032E0C6
:101DD0005C491431884208D15A49091F096841F009
:101DE000F001584A121F116025E0564928318842F7
:101DF00008D15449091F096841F47061514A121F02
:101E0000116018E04F493C31884208D14D49091F03
:101E1000096841F470414B4A121F11600BE04949B7
:101E20005031884207D14749091F096841F47021A0
:101E3000444A121F1160704710B50022026847F62D
:101E4000F0739A430C6A8B6823430C6923434C69F3
:101E500023438C692343CC6923434C6A23438C6A14
:101E600023431A430260CB6843600B6883604B686E
:101E7000C36010BD0021016041608160C1600161EB
:101E800041618161C161016241628162704721B13A
:101E9000026842F00102026004E002684FF6FE733D
:101EA0001A40026070471AB103680B43036002E0F6
:101EB00003688B4303607047416070470146486880
:101EC00080B2704701460020002201F080531BB110
:101ED0001C4B083B1A6802E0194B083B1A6802EADF
:101EE00001030BB1012000E00020704700F0805199
:101EF00019B11449091F086002E011490839486006
:101F0000704701460020002201F080531BB10D4BA9
:101F1000083B1A6802E00A4B083B1A6802EA010310
:101F20000BB1012000E00020704700F0805119B192
:101F30000449091F086002E00149083948607047F8
:101F40000800024008040240002044490860091DBE
:101F50000860091D0860091D086041483F491431A7
:101F60000860704700213D498279002A3AD00A462C
:101F7000126803689A430B461A600A1D12680368C8
:101F80009A430B1D1A60027911440A6803681A43C8
:101F90000A60324A0832126803689A432F4B0833AA
:101FA0001A601A1D126803689A432C4B0C331A608E
:101FB0004279102A0ED11A1F126803681A43274B60
:101FC00008331A601A1D126803681A43234B0C3336
:101FD0001A600DE02149427911440A6803681A43E6
:101FE0000A6005E0027911440A6803689A430A60AE
:101FF00070470021016001710C2141710021817144
:1020000070471649103109680143144A10321160B3
:10201000704701460020114A143212680A400AB182
:10202000012000E0002070470C491431086070471F
:10203000014600200022094B1B6803EA0102074BFE
:1020400014331B680B4013B10AB1012000E00020DB
:1020500070470249143108607047000000040140D5
:10206000FFFF0F0010B50446CC48844208D101217F
:10207000042000F093FB0021042000F08FFB46E0D9
:10208000C748844208D10121082000F087FB0021C5
:10209000082000F083FB3AE0C248844208D10121C5
:1020A000102000F07BFB0021102000F077FB2EE0D9
:1020B000BD48844208D10121202000F06FFB00219F
:1020C000202000F06BFB22E0B848844208D10121B7
:1020D000402000F063FB0021402000F05FFB16E091
:1020E000B348844208D10121802000F057FB002131
:1020F000802000F053FB0AE0AE48844207D1012162
:10210000801500F04BFB0021A01500F047FB10BD2F
:1021100010B50121084600F041FB0021012000F02C
:102120003DFB10BD2DE9F0410246002500260020B0
:1021300000230024002791F803C00CF00F0591F84C
:1021400003C00CF0100CBCF1000F03D091F802C0DA
:102150004CEA050591F800C0BCF1000F31D01468BD
:1021600000202BE04FF0010C0CFA00F3B1F800C096
:102170000CEA03069E4220D183004FF00F0C0CFAAC
:1021800003F7BC4305FA03FC4CEA040491F803C0CE
:10219000BCF1280F06D14FF0010C0CFA00FCC2F87C
:1021A00014C00AE091F803C0BCF1480F05D14FF00C
:1021B000010C0CFA00FCC2F810C0401C0828D1D356
:1021C0001460B1F800C0BCF1FF0F34DD546800208A
:1021D0002EE000F1080C4FF0010808FA0CF3B1F8FA
:1021E00000C00CEA03069E4221D183004FF00F0C81
:1021F0000CFA03F7BC4305FA03FC4CEA040491F81B
:1022000003C0BCF1280F05D100F1080C08FA0CF846
:10221000C2F8148091F803C0BCF1480F07D100F157
:10222000080C4FF0010808FA0CF8C2F81080401CA6
:102230000828CED35460BDE8F0814FF6FF710180CD
:10224000022181700421C17070470246002093680A
:102250000B400BB1012000E0002070470146886868
:1022600080B2704702460020D3680B400BB10120BA
:1022700000E0002070470146C86880B270470161E5
:102280007047416170470AB1016100E041617047E8
:10229000C16070474FF480320A438261816182617C
:1022A00082698269704702460020434B18684FF6E6
:1022B0008073184040EA021008433F4B1860704793
:1022C0003E49C8617047F0B50A460023002400214A
:1022D000002500F00046B6F1004F02D1364EF169FC
:1022E00001E0354E7168C0F3034583B200F4401637
:1022F000B6F5401F08D121F070612F4E766826F0A8
:1023000070662D4F7E6012E000F48016B6F5801FD7
:1023100006D1032606FA05F4A14341F0706106E0F8
:10232000460D360103FA06F6B14341F0706122B161
:10233000460D360103FA06F6314300F00046B6F1C9
:10234000004F02D11C4EF16101E01B4E7160F0BDE7
:1023500030B500228B071C0F0F2303FA04F2164B33
:1023600008338C1053F824309343134C08348D10E9
:1023700044F8253023468C1053F824308C07240F62
:1023800000FA04F423430C4C08348D1044F8253033
:1023900030BD0A49DC310860704700000008014088
:1023A000000C0140001001400014014000180140E1
:1023B000001C0140002001400000014000002042BC
:1023C00010B50121080700F0F6F900214FF0805008
:1023D00000F0F1F910BD2A490862704728490861E8
:1023E000704701460020274A106820F0E0000843AB
:1023F000106070472249A0310860704710B502464E
:102400000020204B186820F00300104318601E4B7A
:102410001B6843F004031C4C2360012901D130BF29
:1024200000E020BF184B1B6823F00403164C236008
:1024300010BD1448006840F00400124908600846C6
:10244000006840F0020008600F48006840F0040097
:102450000D49086000BF00BF30BF70470146002033
:10246000084A52680A400AB1012000E00020704783
:102470000449096841EA8001024A1160704700007E
:1024800000000E420070004010ED00E0DF480068E0
:1024900040F00100DD49086008464068DC4908401A
:1024A000DA49486008460068DA490840D7490860B8
:1024B0000846006820F4802008600846406820F440
:1024C000FE0048604FF41F0088607047CF490968DC
:1024D00021F48031CD4A11601146096821F4802130
:1024E0001160B0F5803F03D0B0F5802F0ED106E02B
:1024F000C649096841F48031C44A116007E0C34904
:10250000096841F4A021C14A116000E000BF00BF8A
:10251000704710B501460022002300204A11012A0D
:1025200002D1BA4C236806E0022A02D1B74C236AD2
:1025300001E0B64C636A01F01F02012494401C4084
:102540000CB1012000E0002010BD38B50020009043
:102550000024002500BF3120FFF7DBFF054600986F
:10256000401C00900098B0F5A06F01D0002DF2D073
:102570003120FFF7CEFF08B1012400E000242046FF
:1025800038BD01460020A14A106820F0F80040EA5A
:10259000C10010607047A0490860704702460020E3
:1025A0009A4B586820F47C1042EA01031843974B79
:1025B0005860704798490866704701460020934A62
:1025C000506820F003000843506070478F4840680F
:1025D00000F00C007047014600208C4A506820F043
:1025E000F00008435060704701460020874A506859
:1025F00020F4E06008435060704701460020834AA1
:10260000506820F4605040EAC1005060704729B122
:102610007E4A527A02437D4B5A7204E07B4A527AD8
:1026200082437A4B5A7270477B49D83108607047B1
:1026300001460020754A506820F44040084350602D
:1026400070470021714A20321170704A82F82010C0
:10265000012802D004280AD104E001216B4A20326B
:10266000117005E00521694A2032117000E000BFB9
:1026700000BF70476949086070476449096A0143AF
:10268000624A11627047654944390860704730B545
:1026900000210022002400235C4D6D6805F00C0130
:1026A00021B1042905D0082923D105E05C4D05603E
:1026B00022E05B4D05601FE0544D6D6805F470121B
:1026C000524D6D6805F48034022505EB92421CB929
:1026D000544D554305600BE04C4D6D6805F40035D5
:1026E0001DB1504D5543056002E04D4D5543056009
:1026F00002E04B4D056000BF00BF444D6D6805F022
:10270000F0010909484D6B5C0568DD4045603F4DAF
:102710006D6805F4E061090A434D6B5C4568DD4076
:1027200085603A4D6D6805F46051C90A3E4D6B5C99
:102730004568DD40C560354D6D6805F44041890B45
:102740003A4D6B5CC568B5FBF3F5056130BD29B149
:102750002E4A526902432D4B5A6104E02B4A5269BA
:1027600082432A4B5A61704729B1284A9269024331
:10277000264B9A6104E0254A92698243234B9A6171
:10278000704729B1214AD2690243204BDA6104E043
:102790001E4AD26982431D4BDA61704729B11B4A38
:1027A000D2680243194BDA6004E0184AD2688243C7
:1027B000164BDA60704729B1144A12690243134B71
:1027C0001A6104E0114A12698243104B1A61704782
:1027D00012494039086070470F49C86470470B4977
:1027E000C87170470948406A40F0807007494862E4
:1027F000704701460020054A92680A400AB101204C
:1028000000E00020704701498872704700100240C4
:102810000000FFF8FFFFF6FE000042428004424243
:1028200000127A0000093D00BD000020CD0000200C
:1028300010B50446FE48844208D10121C014FFF7B8
:10284000ADFF0021E014FFF7A9FFC4E0B4F1804F11
:1028500008D101210846FFF7AEFF00210120FFF754
:10286000AAFFB8E0F348844208D101210220FFF713
:10287000A2FF00210220FFF79EFFACE0EE48844259
:1028800008D101210420FFF796FF00210420FFF763
:1028900092FFA0E0E948844208D101210820FFF717
:1028A0008AFF00210820FFF786FF94E0E448844275
:1028B00008D101211020FFF77EFF00211020FFF733
:1028C0007AFF88E0DF48844208D101212020FFF709
:1028D00072FF00212020FFF76EFF7CE0DA4884427F
:1028E00008D101214014FFF759FF00216014FFF7C0
:1028F00055FF70E0D548844209D10121C804FFF793
:102900004DFF00214FF40020FFF748FF63E0D0485F
:10291000844209D101210805FFF740FF00214FF44F
:102920008010FFF73BFF56E0CA48844209D10121DD
:102930004805FFF733FF00214FF40010FFF72EFF8B
:1029400049E0C548844208D101214020FFF733FF08
:1029500000214020FFF72FFF3DE0C048844208D10E
:1029600001218020FFF727FF00218020FFF723FFB0
:1029700031E0BB48844208D101218015FFF71BFFDD
:102980000021A015FFF717FF25E0B648844209D1C2
:1029900001210804FFF702FF00214FF48030FFF708
:1029A000FDFE18E0B048844209D101214804FFF738
:1029B000F5FE00214FF40030FFF7F0FE0BE0AB48CE
:1029C000844208D101218804FFF7E8FE00214FF47A
:1029D0008020FFF7E3FE10BD00220288944B98424E
:1029E0000ED0994B98420BD0B0F1804F08D0914B4C
:1029F000984205D0904B984202D0904B984204D117
:102A00004FF68F731A404B881A438D4B984207D06C
:102A10008C4B984204D04FF6FF431A40CB881A43A0
:102A200002808B8883850B880385814B98420BD06D
:102A3000854B984208D08B4B984205D08A4B9842E0
:102A400002D08A4B984201D10B7A038601238382FC
:102A5000704770B5002400220023058C4FF6FE76E7
:102A600035400584028C8388048B4FF68F752C408B
:102A7000B51E2C400D882C43751E2A400D892A4313
:102A80004D882A436A4DA8420BD06F4DA84208D00A
:102A9000744DA84205D0744DA84202D0734DA8428F
:102AA00013D14FF6F7752A404D892A434FF6FB752F
:102AB0002A408D882A434FF6FF652B404FF6FF557D
:102AC0002B408D892B43CD892B4383800483CD8874
:102AD0008586028470BD70B5002400220023058C19
:102AE0004FF6EF7635400584028C8388048B48F6D8
:102AF000FF752C404FF6FF452C400D884FF6FF76B2
:102B000006EA05252C434FF6DF752A400D8906EAB3
:102B100005152A434D8806EA05152A43444DA84267
:102B200002D0494DA8421DD14FF67F752A404D89EC
:102B30004FF6FF7606EA05152A434FF6BF752A4081
:102B40008D8806EA05152A434FF6FF352B404FF2D4
:102B5000FF752B408D8906EA85052B43CD8906EA52
:102B600085052B4383800483CD880587028470BD4F
:102B700070B5002400220023058C4FF6FF66354017
:102B80000584028C8388848B4FF68F752C404FF61A
:102B9000FC752C400D882C434FF6FF552A400D89BB
:102BA0004FF6FF7606EA05252A434D8806EA0525F5
:102BB0002A431F4DA84202D0234DA8421DD14FF2F7
:102BC000FF752A404D894FF6FF7606EA05252A4310
:102BD0004FF6FF352A408D8806EA05252A434EF632
:102BE000FF752B404DF6FF752B408D8906EA0515C4
:102BF0002B43CD8906EA05152B4383808483CD883A
:102C00008587028470BD70B5002200230024058CE6
:102C10004EF6FF7635400584038C8488828B48F617
:102C2000FF752A404FF6FF452A400D8820E000003E
:102C3000002C01400004004000080040000C00404F
:102C4000001000400014004000340140004C0140DE
:102C5000005001400054014000180040001C00409A
:102C60000020004000400140004401400048014075
:102C70004FF6FF7606EA05252A434DF6FF752B40F1
:102C80000D8906EA05352B434D8806EA05352B43A9
:102C9000FA4DA84202D0FA4DA84208D14BF6FF7572
:102CA0002C408D894FF6FF7606EA85152C438480EB
:102CB0008283CD88A0F84050038470BD828B4FF290
:102CC000FF331A408283828B4FF6FF7303EA01239E
:102CD0001A4382837047F0B50C4615460022002146
:102CE0000026078C4EF6FF7C07EA0C070784828BD0
:102CF000018C4FF6FF7707EA043640F6FF473A406B
:102D00004FF6FF7707EA05273A434FF6FF7707EAC2
:102D100003373A43D94FB8420ED0D94FB8420BD0FF
:102D2000B0F1804F08D0D74FB84205D0D64FB84247
:102D300002D0D64FB84206D14DF6FF77394046F45F
:102D40008057394305E047F6FF57394044F4805730
:102D5000394382830184F0BD828B4FF6F3731A40AE
:102D60008283828B0A4382837047F0B50C461546F6
:102D7000002200210026078C4FF6FF6C07EA0C07A3
:102D80000784828B018C4FF6FF7707EA04264FF603
:102D90000C773A404FF6FF7707EA03172F433A4381
:102DA000B64FB8420ED0B64FB8420BD0B0F1804FFC
:102DB00008D0B44FB84205D0B34FB84202D0B34F99
:102DC000B84206D14FF6FF57394046F48077394371
:102DD00005E04FF2FF57394044F48077394382834E
:102DE0000184F0BD028B4FF2FF331A400283028B45
:102DF0004FF6FF7303EA01231A4302837047F0B5CD
:102E00000C461546002200210026078C4FF6EF7C69
:102E100007EA0C070784028B018C4FF6FF7707EA5D
:102E2000041640F6FF473A404FF6FF7707EA0337AC
:102E30003A434FF6FF7707EA05273A438F4FB842E8
:102E40000ED08F4FB8420BD0B0F1804F08D08D4FCD
:102E5000B84205D08C4FB84202D08C4FB84206D150
:102E60004FF6DF77394046F01007394305E04FF65B
:102E70005F77394044F01007394302830184F0BD85
:102E8000028B4FF6F3731A400283028B0A430283CC
:102E90007047F0B50C46154600220021068C4FF60F
:102EA000FE773E400684028B018C4FF60C76324052
:102EB0007E1C06EA03162E433243704EB0420ED0FB
:102EC0006F4EB0420BD0B0F1804F08D06D4EB04283
:102ED00005D06D4EB04202D06C4EB04206D14FF6D6
:102EE000FD76314044F00106314305E04FF6F576BA
:102EF000314044F00106314302830184F0BD70B5D6
:102F000005460C465D4885420ED05D4885420BD093
:102F1000B5F1804F08D05B48854205D05A488542BC
:102F200002D05A48854200D100E000BF208850B945
:102F30002389A28861882846FFF7ABFFE1882846ED
:102F4000FFF79EFF25E0208804280AD12389A28864
:102F500061882846FFF753FFE1882846FFF742FFC4
:102F600017E0208808280AD12389A288618828468A
:102F7000FFF7FBFEE1882846FFF7EEFE09E0238914
:102F8000A28861882846FFF7A6FEE1882846FFF759
:102F900095FE70BD2DE9F04105460C46002601273F
:102FA000608808B9022600E00026A088012801D127
:102FB000022700E001272088A0B92389A288618820
:102FC0002846FFF766FFE1882846FFF759FF238967
:102FD0003A4631462846FFF712FFE1882846FFF7B8
:102FE00001FF13E02389A28861882846FFF707FFC5
:102FF000E1882846FFF7F6FE23893A4631462846FF
:10300000FFF747FFE1882846FFF73AFFBDE8F08168
:103010000A884B881A438B881A43CB881A430B893A
:103020001A434B891A438B891A43A0F844207047EE
:103030004FF6FF71818000210180C18041800172C3
:1030400070470021018041808180C18001814181E0
:103050008181C181704700210180418001218180EF
:103060000021C18001817047002101804180818061
:10307000C18001814181818170470000002C0140A5
:10308000003401400004004000080040000C0040F3
:1030900021B1028842F00102028004E002884FF66A
:1030A000FE731A400280704731B1B0F8442042F4F8
:1030B0000042A0F8442005E0B0F84420C2F30E021C
:1030C000A0F8442070471AB183890B43838102E042
:1030D00083898B43838170478182704741EA020371
:1030E000A0F8483070471AB183890B43838102E00E
:1030F00083898B438381704701894FF6F8721140B1
:10310000018170470A46002101894FF68F731940EB
:1031100011430181704730B504460D4629462046CB
:10312000FFF7F0FF208940F00700208130BD2DE936
:10313000F04104460D4616461F46602D06D13B461B
:10314000012231462046FFF75AFE05E03B460122A8
:1031500031462046FFF79DFE29462046FFF7D2FF65
:10316000208940F007002081BDE8F08130B50C4691
:1031700000210189C9B24FF6FF7505EA0325154301
:1031800025432943018130BD2DE9F04105460E4616
:1031900017469846002443463A4631462846FFF7EC
:1031A000E5FF2C894FF6F870044044F007044FF611
:1031B0008F70044044F070042C81BDE8F081F0B5BC
:1031C00004460D4616461F463B46324629462046D3
:1031D000FFF7CCFF208940F480402081F0BD0185BD
:1031E000828270470A46002101884FF68F7319408A
:1031F000114301807047F0B50C4615461E4600216C
:10320000002200230189028B038C4FF6F8773940A6
:1032100021434FF6FC473A4040F201173A434FF63C
:10322000DD773B404FF6FF7707EA06172F433B4316
:10323000018102830384F0BD0A460021018B4FF611
:103240008F7319401143018370470A460021018B97
:1032500048F6FF7319404FF6FF7303EA0223194340
:10326000018370470A460021818B4FF68F73194006
:103270001143818370470A460021818B48F6FF7312
:1032800019404FF6FF7303EA022319438183704705
:1032900021B1028842F08002028004E002884FF6E9
:1032A0007F731A400280704721B1828842F0040285
:1032B000828004E082884FF6FB731A408280704758
:1032C00021B1828842F00802828004E082884FF6B1
:1032D000F7731A408280704721B1828842F0010260
:1032E000828004E082884FF6FE731A408280704725
:1032F0000A460021018B4FF6F773194011430183F1
:1033000070470A460021018B4FF2FF7319404FF6B8
:10331000FF7303EA02231943018370470A46002121
:10332000818B4FF6F77319401143818370470A462A
:103330000021818B4FF2FF7319404FF6FF7303EAB0
:1033400002231943818370470A460021018B4FF6FF
:10335000FB7319401143018370470A460021018B1A
:103360004FF6FF3319404FF6FF7303EA0223194368
:10337000018370470A460021818B4FF6FB73194089
:103380001143818370470A460021818B4FF6FF333A
:1033900019404FF6FF7303EA0223194381837047F4
:1033A0000A460021018B4FF67F73194011430183B8
:1033B00070470A460021018BC1F30E014FF6FF73DF
:1033C00003EA02231943018370470A460021818BD7
:1033D0004FF67F7319401143818370470A460021DD
:1033E000818BC1F30E014FF6FF7303EA02231943E9
:1033F000818370470A460021018C4FF6FD73194006
:103400001143018470470A460021018C4FF6F7737F
:1034100019401143018470470A460021018C4FF680
:10342000DF7319404FF6FF7303EA02131943018457
:1034300070470A460021018C4FF67F7319404FF602
:10344000FF7303EA02131943018470470A460021FF
:10345000018C4FF6FF5319404FF6FF7303EA022326
:103460001943018470470A460021018C4FF2FF7313
:1034700019404FF6FF7303EA022319430184704792
:103480000A460021018C4DF6FF7319404FF6FF7379
:1034900003EA023319430184704730B50023012445
:1034A0008C40A3B2048C9C430484048C02FA01F582
:1034B000ADB22C43048430BD30B5002304248C40CD
:1034C000A3B2048C9C430484048C02FA01F5ADB2CF
:1034D0002C43048430BD70B50346002000241846F8
:1034E000183001258D40ACB21D8CA5431D8409B157
:1034F000082909D100EB6100056825F07005056019
:103500000568154305600EE00D1FC5F34E05284400
:10351000056825F4E045056005684FF6FF7606EA84
:1035200002263543056070BD21B1028842F00202D7
:10353000028004E002884FF6FD731A400280704753
:1035400021B1028842F00402028004E002884FF6B2
:10355000FB731A400280704721B1828842F08002DA
:10356000828004E082884FF67F731A408280704721
:1035700002884FF6F7731A40028002880A430280DD
:10358000704782884FF68F731A40828082880A4380
:103590008280704702894FF6F8731A4002810289CF
:1035A0000A430281704702894FF67F731A400281F5
:1035B00002890A4302817047818470478185704780
:1035C000818670470187704781877047A0F8401057
:1035D000704702884FF6FF431A40028002880A4370
:1035E000028070470146888E70470146088F7047F9
:1035F0000146888F70470146B1F840007047014688
:10360000888C70470146088D704702460020138A57
:103610000B400BB1012000E000207047CA4302823A
:10362000704730B50246002000230024158A05EAC1
:103630000103958905EA010413B10CB1012000E0F2
:10364000002030BDCA4302827047000010B5044616
:10365000FB48844209D101218803FFF79FF800212C
:103660004FF48040FFF79AF832E0F648844209D1DF
:1036700001214804FFF79FF800214FF40030FFF7C5
:103680009AF825E0F048844209D101218804FFF727
:1036900092F800214FF48020FFF78DF818E0EB48F6
:1036A000844209D10121C804FFF785F800214FF4B5
:1036B0000020FFF780F80BE0E548844208D10121A3
:1036C0000805FFF778F800214FF48010FFF773F832
:1036D00010BD2DE9F04786B005460E460024A246EF
:1036E00000BFA1460027B08900B100BF2F462C8A39
:1036F0004CF6FF700440F08804432C82AC894EF6EF
:10370000F3100440B08831890843718908430443A9
:10371000AC81AC8A4FF6FF400440B0890443AC82D0
:1037200001A8FEF7B4FFC648874202D1DDF810A019
:1037300001E0DDF80CA0A88900F4004040B10AEBDC
:10374000CA0000EB0A1031684900B0FBF1F807E04D
:103750000AEBCA0000EB0A1031688900B0FBF1F8EF
:103760006420B8FBF0F004012009642101FB1089FA
:10377000A88900F4004040B1322000EBC900B0FB42
:10378000F1F000F00700044308E0322000EB0910DC
:103790006421B0FBF1F000F00F0004432C8106B06F
:1037A000BDE8F0874FF41651016000218180C1808F
:1037B00001810C21418100218181704710B50246B1
:1037C0000020108A4FF2FF0318400B884C882343D7
:1037D0008C882343CC8823431843108210BD0021DA
:1037E000018041808180C180704721B1828942F48B
:1037F0000052828104E082894DF6FF731A40828173
:103800007047F0B50346002400260025002040F64E
:103810006A17B94200D100BF1846C1F3421401F043
:103820001F06012707FA06F5012C01D10C3004E030
:10383000022C01D1103000E014301AB107682F4378
:10384000076002E00768AF430760F0BD1AB1838AE2
:103850000B43838202E0838A8B4383827047028A10
:103860004FF6F0731A400282028A0A4302827047BE
:1038700082894FF2FF731A40828182890A438281D2
:10388000704721B1828942F00202828104E082897C
:103890004FF6FD731A4082817047028A4FF6DF733C
:1038A0001A400282028A0A430282704721B1028AC8
:1038B00042F48042028204E0028A4BF6FF731A400F
:1038C00002827047C1F308028280704701468888EF
:1038D000C0F308007047818941F001018181704780
:1038E000028BD2B20283028B42EA0122028370472A
:1038F000028B02F47F420283028B0A4302837047E9
:1039000021B1828A42F02002828204E0828A4FF64C
:10391000DF731A408282704721B1828A42F010021E
:10392000828204E0828A4FF6EF731A4082827047E7
:1039300021B1828A42F00802828204E0828A4FF634
:10394000F7731A408282704721B1828942F40042A3
:10395000828103E08289C2F30E028281704721B125
:10396000828A42F40062828204E0828A4FF2FF730C
:103970001A4082827047828A4FF6FB731A40828215
:10398000828A0A438282704721B1828A42F002020F
:10399000828204E0828A4FF6FD731A408282704769
:1039A00002460020B1F5007F00D100BF13880B4014
:1039B0000BB1012000E00020704701F40072B2F565
:1039C000007F00D100BFCA430280704770B5024635
:1039D000002400230025002040F66A16B14200D1E1
:1039E00000BFC1F3421501F01F03012606FA03F3DD
:1039F000012D02D19689334006E0022D02D1168AAC
:103A0000334001E0968A33400C12012606FA04F492
:103A10001688344013B10CB1012000E0002070BDC5
:103A200010B50022002340F66A14A14200D100BF65
:103A30000A1201249440A3B2DC43048010BD0000AC
:103A4000003801400044004000480040004C004065
:103A50000050004010B56FF00400FDF7A2FE2E48A4
:103A600000682E49B0FBF1F02D4908700846007837
:103A700000EB4001C1EBC0104FF6FF7101EAC0003E
:103A80002849088010BD0146254A12784A434FF064
:103A9000E0235A6100229A611A46126942F001023B
:103AA0001A6100BF4FF0E022106900F001021AB164
:103AB00000F48032002AF5D04FF0E022126922F0A3
:103AC00001024FF0E0231A6100229A61704701461B
:103AD000144A12884A434FF0E0235A6100229A6147
:103AE0001A46126942F001021A6100BF4FF0E0224B
:103AF000106900F001021AB100F48032002AF5D0FA
:103B00004FF0E022126922F001024FF0E0231A6127
:103B100000229A61704700006000002000127A00C5
:103B2000D2000020D4000020014600BF70472E4A7A
:103B300012785AB900BF2D4A128802F04002002ABA
:103B4000F9D0C2B2294B1B1D1A800AE000BF284AD7
:103B5000128802F04002002AF9D0C2B2244B1B1D89
:103B60001A80704710B586B004460121C804FEF7DC
:103B700008FE01211020FEF7F7FD4FF48060ADF83C
:103B8000140003208DF8160018208DF8170005A9E1
:103B90001848FEF7C7FA4FF40060ADF8140004208F
:103BA0008DF8170005A91348FEF7BCFA0194002010
:103BB000ADF80800ADF80A00ADF80C00ADF8100043
:103BC0000C20ADF80E0001A90948FFF782FD002284
:103BD00040F225510648FFF714FE01210448FFF783
:103BE00004FE06B010BD00000700002000380140B0
:103BF000004C004000100140A34A0A400243A34B7E
:103C00001A6070470146072323EA010212029F4B04
:103C10001B1D18684FF6FF0318409D4B18431043B7
:103C20009A4B1B1D186070472DE9F04107468846E6
:103C300014461D462846FFF7E5FFC5F1040007FAC4
:103C400000F60F20284100EA0800064306F00F06A0
:103C5000E21704EBD2625211920002F1E022D2F894
:103C600000212146E31704EBD3635B11A4EB431C53
:103C7000012303FA0CF31A432046E31704EBD36342
:103C80005B119B0003F1E023C3F800218148005D34
:103C900040EA06107F490855BDE8F08170B504463A
:103CA0000B46CE1701EB9676C6F38700CE1701EBD5
:103CB0009676B610A1EB8606B606350E764B9B6956
:103CC00043F00103744EB3614FEAB63353F820302A
:103CD0000F26AE40B343714E46F82030334653F8BA
:103CE000203004FA05F61E436C4B43F820606C4B01
:103CF0001B6801268E403343694E336002F0010396
:103D000043B1674B0C331B6801268E403343644E2E
:103D10000C36336002F0020343B1614B08331E6876
:103D200001238B401E435E4B08331E6070BD00B5FF
:103D3000002059490861C86014204861002088614A
:103D4000C8610846006840F0010008600846406805
:103D500054490840504948600846006852490840A4
:103D60004D4908600846006820F480200860084635
:103D7000406820F4FE0048600020886000214FF079
:103D80000060FFF739FF00BD10B5404808300068FB
:103D900040F004003D49083108603F48C06940F0E8
:103DA00080503D49C8614148406840F480703F49B7
:103DB00048600846006840F0040008600846006853
:103DC00040F002000860FCF725FA10BD3048001DE5
:103DD0002E49091D08607047014649062E4A92691E
:103DE00042F001022C4B9A612C4A083A526822F0A8
:103DF000E0622A4B083B5A601A4652680A435A60EE
:103E0000704730B504460025FFF791FF224800684F
:103E100040F480302049086000BF1F480068400C13
:103E20000028FAD04FF480601B494860A01EC4B23D
:103E30000846406840EA844048600846406840F4CC
:103E4000803048601A48006840F032001849086025
:103E50001148006840F080700F49086000BF0E48AC
:103E60000068400E0028FAD00B48406840F002007D
:103E70000949486005E008484068C0F3870505F037
:103E80000305022DF7D130BD80FFFF1F08ED00E0D4
:103E90000000FA0500E400E00010024008000140C4
:103EA000000401400000FFF8FFFFF6FE0070004034
:103EB0000020024008B501211020FEF755FC0E201D
:103EC000ADF8000010208DF8030003208DF80200EB
:103ED00069460D48FEF726F908BD18B900210B4ABE
:103EE00011600FE00A490968491C094A11608142C2
:103EF00008D106490968C943064AC2F8841100215D
:103F0000034A116070470000001001408401224202
:103F1000DC0000200000224208B501210820FEF745
:103F200023FC0820ADF8000048208DF80300694606
:103F30004B48FEF7F7F808BD01464A48006828B923
:103F400049480088401C484A108002E00020464A48
:103F500010804448006828B94448007810B901200E
:103F6000424A107042480078B0B9404800780128B1
:103F700007D140480078401C3E4A107001203C4A5E
:103F800010703C480078022806D10020394A107091
:103F9000394A10800220704732480068012804D155
:103FA0000020324A1070324A1070324800780128DE
:103FB0001CD131480088401C2F4A108010460088D0
:103FC00088420ADD28480088884206DA0020294A0B
:103FD0001070294A10800120DDE7234800888842BC
:103FE00004DD0020234A1070234A10800020D2E70D
:103FF0002248007838B11B48006820B900201F49CA
:1040000008700120704717480068012801D11B493A
:1040100008700020F6E71A48008840B91148006887
:1040200028B918480088401C1649088002E0002082
:104030001449088013480088C82807DD012010496A
:10404000088000200F490880012070470C48008834
:10405000012802D100200A4908800020F5E700006D
:10406000000C01400C812142E6000020E00000200D
:10407000E1000020E2000020E4000020E800002031
:10408000EC000020EA00002010B50A461AB1012316
:10409000FE4C236002E00023FC4C2360002116E06C
:1040A0000023FA4C3434236000F080031BB1012359
:1040B000241D236003E00023F44C383423600123E3
:1040C000F24C343423604306180E4B1CD9B2082935
:1040D000E6DB0123ED4C236010BD30B500241CE06D
:1040E00004F1B001C8B20021FFF7CEFF002108465D
:1040F000FFF7CAFF00211020FFF7C6FF002508E0E8
:10410000E34901EBC501085D0121FFF7BDFF681C14
:10411000C5B2802DF4DB601CC4B2082CE0DB30BDDE
:1041200000B500218D20FFF7AFFF00211420FFF71D
:10413000ABFF0021AF20FFF7A7FF00BD00B50021B6
:104140008D20FFF7A1FF00211020FFF79DFF002128
:10415000AE20FFF799FF00BD30B500240CE000252C
:1041600006E00020CA4901EBC5010855681CC5B22C
:10417000802DF6DB601CC4B2082CF0DBFFF7ADFF2E
:1041800030BDF0B5144600267F2801DC3F2900DD54
:10419000F0BD0B46CF1701EB5777FF10C7F10707AC
:1041A000FAB2CF1701EB5777FF10A1EBC707FDB2AB
:1041B000C5F107070123BB40DEB24CB1B44B03EBA2
:1041C000C0039B5C3343B24F07EBC007BB5408E00E
:1041D000AF4B03EBC0039B5CB343AD4F07EBC00792
:1041E000BB5400BFD4E72DE9F04F80460C4615467E
:1041F0001E46A346A5F12000C5B200273EE00C2EC6
:1042000007D105EB4500A34901EB800010F80790AA
:1042100004E0A14800EB051010F807904FF0000AE9
:1042200026E009F0800028B121464046099AFFF7B0
:10423000A8FF09E0099808B9012000E00020024623
:1042400021464046FFF79DFF4FEA49604FEA10695B
:10425000601CC4B2A4EB0B00B04205D15C4608F16F
:10426000010000F0FF0806E00AF1010000F0FF0A7B
:10427000BAF1080FD5DB00BF781CC7B2B742BEDB6E
:10428000BDE8F08F10B50246012000E050430B005E
:10429000A1F10104E1B2F9D110BD2DE9FF4F81B0C8
:1042A000074691461E460E9D4FF0000A002439E055
:1042B000301B401EC1B20A20FFF7E4FFB9FBF0F04B
:1042C0000A21B0FBF1F201FB1208BAF1000F16D17E
:1042D000701EA04213DDB8F1000F0ED10120AB46D5
:1042E00005EBDB71491001FB04710090C8B22B464D
:1042F00020220299FFF777FF12E04FF0010A012018
:10430000AB4605EBDB71491001FB04710090C8B2AC
:1043100008F13001CAB22B460299FFF764FF00BFD3
:10432000601CC4B2B442C3DB05B0BDE8F08F78B501
:1043300005460E46144618E07A2D03DD002506F1E9
:104340001000C6B23A2E04DD002005460646FFF7EF
:1043500003FF0120009022780C2331462846FFF706
:1043600042FF05F10800C5B2641C20780028E3D1A3
:1043700078BD08B501211020FEF7F6F901210846A5
:10438000FEF7F2F94EF20100ADF8000010208DF8B2
:10439000030002208DF8020069464048FDF7C2FE86
:1043A0000120FEF718F80020FEF74BF90020FDF77A
:1043B0004AFC0020FEF70FF8002034493C31086029
:1043C0006420FFF784FB01203549C1F8BC010021BE
:1043D000AE20FFF759FE0021D520FFF755FE002142
:1043E0005020FFF751FE0021A820FFF74DFE0021CD
:1043F0003F20FFF749FE0021D320FFF745FE0021B3
:104400000846FFF741FE00214020FFF73DFE002156
:104410008D20FFF739FE00211420FFF735FE002123
:104420002020FFF731FE00210220FFF72DFE0021A2
:10443000A120FFF729FE0021C020FFF725FE002163
:10444000DA20FFF721FE00211220FFF71DFE0021D8
:104450008120FFF719FE0021EF20FFF715FE002154
:10446000D920FFF711FE0021F120FFF70DFE0021FA
:10447000DB20FFF709FE00213020FFF705FE0021B9
:10448000A420FFF701FE0021A6200BE080012242BC
:10449000DC050020F4DB000868E0000800100140A3
:1044A00000002242FFF7F0FD0021AF20FFF7ECFDF6
:1044B000FFF752FE08BD000000B587B001214FF4A0
:1044C0000170FEF751F94FF40040FEF7B1F81020EB
:1044D000ADF8040000208DF8070001A92C48FDF775
:1044E00021FE2C48FDF77CF9002002908DF80C008D
:1044F0008DF80D004FF460200490002005900120FD
:104500008DF8180002A92348FDF791F901212148EF
:10451000FDF7B9F91F48FDF7D8F900BF1D48FDF7B1
:10452000D9F90028FAD11B48FDF7DEF900BF194878
:10453000FDF7DFF90028FAD107B000BD01460120E0
:1045400070471549088070472DE9FE4F12480088D2
:1045500008F0BEFA4FF06632104BCDE9000108F0CA
:1045600007FB804600220E4B08F002FB06460022A5
:104570000C4B08F0FDFA044600220B4B08F0DCF867
:10458000824608F031FA02900298BDE8FE8F0000E2
:104590000008014000240140EE00002066660A4049
:1045A00000003540000059400000B04030B585B0F3
:1045B00005460C4601210220FEF7E3F801211820F0
:1045C000FEF7D2F80120ADF8100028208DF8130076
:1045D00004A9FA48FDF7A6FD0220ADF8100010204E
:1045E0008DF8130002208DF8120004A9F348FDF79E
:1045F00099FDADF80850ADF804400020ADF80A0070
:10460000ADF8060001A9EE48FEF7E6F90820ED49ED
:10461000088000204880012088800020C880088110
:10462000E748FEF76CFC1D208DF8000002208DF895
:10463000010000208DF8020001208DF8030068467B
:10464000FDF765F801220921DD48FEF73CFD012157
:10465000DB48FEF71DFD05B030BD10B50120DA497D
:1046600008600F20FFF70FFA0020D849C1F8840135
:10467000D748007800F08000E8B1D548007800F015
:104680003F00D449086008460088000408600846D6
:104690000068D14909880844CE4908600846006886
:1046A000AA2148434FF47A71B0FBF1F0C949086080
:1046B0000020C749088010BDC14910310888C4498D
:1046C000097801F0800100294ED100F00101D1B13B
:1046D000BF49097801F04001A9B1BD49097801F04D
:1046E0003F013F290AD1BA49098841F08001B84AFF
:1046F00011804FF6FF71B84A118004E0B44909886F
:10470000491CB34A118000F0080169B3B049097827
:1047100001F0400199B1AE49098841F08001AC4AED
:104720001180A7493C310988AB4A1180A449203146
:10473000098821F40071A24A2032118014E000217E
:10474000A34A1180A44A1180A149098841F040017F
:104750009F4A118000219A4A24321180111F098832
:1047600041F40071121F11800021954A103211800E
:10477000704730B589B004460D4601214803FDF766
:10478000F3FF01211020FDF7EFFF01210846FDF79F
:10479000EBFFC020ADF8200004208DF8230008A90D
:1047A0008E48FDF7BFFCC0218C48FDF76AFD8C48A0
:1047B000FEF7A2FCADF814500020ADF81600ADF8DD
:1047C0001840ADF81A0005A98548FEF705F9002044
:1047D000ADF80400ADF806000120ADF80800002097
:1047E000ADF80A00ADF80C0001A97D48FEF787FB83
:1047F0000420ADF8040001A97948FEF780FB2E20C3
:104800008DF8100001208DF8110000208DF81200A5
:1048100001208DF8130004A8FCF779FF2C208DF8F7
:10482000100004A8FCF773FF07216D48FEF70AFF8C
:10483000012207216A48FEF746FC01216848FEF77D
:1048400027FC09B030BD10B56648007800F0800044
:10485000002842D102216248FEF7E3FE00283CD046
:1048600002215F48FEF7EEFE5E48007800F040004F
:1048700020B35B48FEF7B6FE5B4908800846008817
:104880005A490988884204DA4FF6FF70584908608F
:1048900002E00020564908605348008853490988BF
:1048A000401A5349096808445249086000204D499C
:1048B000087000214A48FEF79DFD0EE04848FEF7CB
:1048C00091FE4A4908804748007840F04000454939
:1048D000087002214248FEF78DFD4748007800F03D
:1048E0008000002841D104213D48FEF79AFE60B3C4
:1048F00004213B48FEF7A6FE3F48007800F0400048
:1049000020B33748FEF771FE3C490880084600880E
:104910003B490988884204DA4FF6FF70394908603C
:1049200002E000203749086034480088344909888B
:10493000401A3449096808443349086000202E4968
:10494000087000212648FEF767FD0EE02448FEF7B8
:104950004CFE2B4908802848007840F0400026494A
:10496000087002211E48FEF757FD10BD10B5012149
:104970001B48FEF767FE10BDF0B58DB004460F462C
:1049800015460026052C0FDA04EB04101F4911F818
:104990002000012801D10DB0F0BD012004EB04116D
:1049A0001A4A02F8210000E0F5E7022C30DC04F19D
:1049B0001C00C0B28DF8200035E00000000C014062
:1049C00000040040DC090020848121420080214253
:1049D000F000002034000020F20000200010014010
:1049E00000340140F4000020F8000020F600002010
:1049F0000C01002058000020FA000020FE000020DA
:104A0000FC000020100100205C000020E8090020CC
:104A1000032C03D132208DF8200004E0042C02D1B5
:104A200037208DF8200001208DF8210000208DF81E
:104A3000220001208DF8230008A8FCF768FE6846D4
:104A4000FDF725FE04EB0410E04901EB8000456012
:104A500004EB041001EB80004068DD49B1FBF0F08D
:104A6000401E80B2ADF818000198B0FBF1F0401E76
:104A700080B2ADF814000020ADF81A00ADF81600B1
:104A80002020ADF82400B0B2ADF82A000020ADF827
:104A90002C00032C02D0042C44D121E00121082059
:104AA000FDF76FFE05A9CB48FDF796FF09A9C94898
:104AB000FDF7CFFF0021C748FEF71AFC0121C548CA
:104AC000FEF7E6FB0321C348FEF7BCFD01220321EC
:104AD000C048FEF7F8FA0121BE48FEF7D9FA21E0F6
:104AE00001212020FDF74DFE05A9BB48FDF774FF0D
:104AF00009A9B948FDF7ADFF0021B748FEF7F8FB5B
:104B00000121B548FEF7C4FB0321B348FEF79AFD27
:104B100001220321B048FEF7D6FA0121AE48FEF784
:104B2000B7FA00BF00BF00BF35E7014601EB011037
:104B3000A64A02EB8000704730B501B930BD00EBEA
:104B40000013A24C04EB83035B780F2B00D1F5E735
:104B500000220CE000EB00139C4C04EB83030833B1
:104B600053F822308B4200D1E8E7531CDAB200EB55
:104B70000013964C04EB83035B789342EADC00EB72
:104B8000001304EB8303083300EB00148F4D05EB97
:104B90008404647843F8241000EB00132C4604EBE3
:104BA00083035B785B1C00EB001405EB84046370EB
:104BB00000BFC3E710B5002402218648FEF731FD8F
:104BC00020B102218348FEF73DFD15E00121814817
:104BD000FEF727FD80B101217E48FEF733FD7B48BB
:104BE00090F8CD4006E0601EC4B27849D43151F847
:104BF00024008047002CF6DC10BD10B500240221F3
:104C00007548FEF70EFD20B102217348FEF71AFD2C
:104C100014E001217048FEF704FD78B101216E48CF
:104C2000FEF710FD694890F8114105E0601EC4B21E
:104C30006A4951F824008047002CF7DC10BD0020A1
:104C400000BF31E000EB4001654A12F8111049B392
:104C500000EB400102EB41018988491C00EB400256
:104C60005F4B03EB4202918000EB40011A4602EBDE
:104C70004101898800EB400203EB420252889142D5
:104C800010DB002100EB400203EB42029180012186
:104C900000EB400203EB42025170002100EB4002A6
:104CA00003F81210411CC8B24E4909788842C9DB8A
:104CB000704730B505460C464A480570AFF2810191
:104CC0002046FFF739FF30BD30B5024600240023EF
:104CD000454800781044434D2D78A84214DA00BFAF
:104CE0000EE049B1404800780870491C3E48007801
:104CF000401C3D4D287001E0002030BD581CC3B25F
:104D00009342EEDB012401E00020F6E72046F4E7C1
:104D1000024634480078824207DA02EB4200304B08
:104D200003EB40004180012070470020FCE7014672
:104D30002C480078814206DA012001EB4102284B21
:104D400003F8120070470020FCE701462548007870
:104D5000814207DA002001EB4102214B03F81200E7
:104D6000012070470020FCE701461E480078814280
:104D700006DA01EB41001A4A02EB40004078704726
:104D80000020FCE7014617480078814206DA01EB73
:104D90004100134A02EB4000808870470020FCE786
:104DA00001461048007881420DDA002001EB4102F3
:104DB0000B4B03EB4202507001EB410203EB42024A
:104DC0009080012070470020FCE70000E8090020E7
:104DD00040420F00000C004000140040000B002077
:104DE0003C0B00201C0100201D01002008B5012102
:104DF0001020FDF7B9FC4FF49850ADF800001020DA
:104E00008DF8030003208DF8020069463348FDF752
:104E100089F901210420FDF7A7FC4FF40040ADF80B
:104E2000000010208DF8030003208DF80200694671
:104E30002B48FDF777F908BD30B589B005460C461B
:104E4000FFF7D4FF0121C802FDF78EFC01210420E9
:104E5000FDF78AFC4FF41060ADF8200018208DF8A3
:104E6000230003208DF8220008A91D48FDF75AF9F8
:104E7000ADF81850ADF814400020ADF81A00ADF8A8
:104E8000160005A91748FDF7A7FD6020ADF804003E
:104E90000120ADF806000020ADF80A00ADF80C00C6
:104EA00001A91048FDF7D5FD01A90E48FDF7ABFE9D
:104EB00001210C48FEF7F8F808210A48FEF718FA15
:104EC00008210848FEF733FA01210648FEF7E0F909
:104ED00001210448FEF7DCF809B030BD00100140A4
:104EE00000080140002C014000B587B001210846B0
:104EF000FDF747FC01210420FDF736FC0320ADF847
:104F0000000004208DF8030069466148FDF70AF9A6
:104F100004A8FEF78DF80020ADF810004FF6FF70E2
:104F2000ADF814000020ADF81600ADF8120004A989
:104F30004FF08040FDF750FD00231A4603214FF04B
:104F40008040FEF758F901A8FEF785F80A20ADF871
:104F50000C0001A94007FDF7D2FF01218807FEF7E9
:104F60005DFB012211469007FEF7ADF800214FF0DE
:104F70008040FEF721FB01218807FEF789F807B082
:104F800000BD00B587B001210420FDF7FAFB012127
:104F90000820FDF7E9FBC020ADF8000004208DF8E3
:104FA000030069463B48FDF7BDF804A8FEF740F84A
:104FB0000020ADF810004FF6FF70ADF8140000208F
:104FC000ADF81600ADF8120004A93348FDF704FD52
:104FD00002231A4603213048FEF70DF901A8FEF717
:104FE0003AF80A20ADF80C0001A92B48FDF787FF1D
:104FF00001212948FEF712FB012211462648FEF73F
:1050000062F800212448FEF7D7FA01212248FEF772
:105010003FF807B000BD0146022904D003290BD098
:10502000042919D10FE04FF08042928C10B2002277
:105030004FF080439A8411E0184A128810B200227F
:10504000164B1A800AE0144A2432128810B2002249
:10505000114B24331A8001E0002000BF00BF7047CD
:105060000D48103000880C481030008820F00100F6
:1050700009491031088070474FF08040008A4FF096
:105080008040008A20F001004FF080410882704784
:1050900000080140000C01400008004024040040CA
:1050A00008B501210820FDF75FFB4FF44060ADF823
:1050B000000010208DF8030003208DF802006946DF
:1050C000F748FDF72FF808BD10B5F548001D00683A
:1050D00020F47040F249091D08600846006840F459
:1050E000405008600120EF490860EF48D0F82C01DB
:1050F00008B9002010BD0120EA49091F0860FEF729
:10510000C2FC0020E849C1F8AC01E64880380068DC
:1051100008B10020EEE70120FEF7B5FC0020E149D0
:10512000091F08600120E5E710B5DD48001D006893
:1051300020F47040DA49091D08600846006840F410
:10514000405008600020D749091F0860D649C1F8BF
:10515000AC010120FEF797FC0120D249091F08602D
:10516000D149C1F8AC01FEF78EFC10BD10B500248A
:10517000CB48001D006820F47040C949091D086033
:105180000846006840F4004008600120C5490860F6
:10519000FEF779FC0120C449C1F8A801FEF773FCB1
:1051A0000AE0601CC4B2322C03DDFFF7BDFF002013
:1051B00010BD0120FEF767FCBA488038006800285F
:1051C000EFD1B849091F08600120F1E710B50020B0
:1051D000B449091F0860B248001D006820F47040FF
:1051E000AF49091D08600846006840F44050086057
:1051F0000020AD49C1F8AC010120FEF744FC0120BC
:10520000A849091F0860FEF73EFC0020A649C1F826
:10521000A80110BD10B50020A249091F0860A048D0
:10522000001D006820F470409D49091D0860084673
:10523000006840F44050086001209B49C1F8AC016F
:10524000FEF721FC01209749091F0860FEF71BFCAF
:1052500000209549C1F8A80110BD70B504469048DA
:10526000001D006820F470408D49091D0860084643
:10527000006840F44050086000208A49091F086017
:10528000002516E0E009874908606006040E012049
:10529000FEF7F9FB01208449C1F8A801FEF7F3FBF2
:1052A00000208049091F08600120FEF7ECFB681C04
:1052B000C5B2082DE6DB70BD2DE9F04105460E466E
:1052C00017469846FFF700FF10B90120BDE8F081AE
:1052D0006906080EFFF7C1FFFFF748FF18B9FFF78F
:1052E00023FF0120F2E73046FFF7B7FFFFF73EFF4D
:1052F00000240BE018F80400FFF7AFFFFFF736FFBC
:1053000018B9FFF711FF0020E0E7641CBC42F1DB95
:10531000FFF70AFF0020D9E770B505460024604872
:10532000001D006820F470405D49091D08600846B2
:10533000006840F400400860002617E0002059494A
:10534000091F08600220FEF79EFB01205649C1F8A4
:10535000A8016006040E53488038006808B1601C3C
:10536000C4B20220FEF78FFB701CC6B2082EE5DB2C
:1053700015B1FFF72BFF01E0FFF74CFF204670BD92
:105380002DE9F04106460F4614461D46FFF79CFEE8
:1053900010B90120BDE8F0817106080EFFF75DFF2E
:1053A000FFF7E4FE18B9FFF7BFFE0120F2E7384629
:1053B000FFF753FFFFF7DAFEFFF786FE012101EB4F
:1053C0004601C8B2FFF749FFFFF7D0FE0DE0012C00
:1053D00004D10020FFF7A0FF287003E00120FFF7B1
:1053E0009BFF28706D1C601EC4B2002CEFD1FFF72C
:1053F0009BFE0020CEE770B505460E460024FFF761
:1054000063FE2846FFF729FF641CFFF7AFFE304616
:10541000FFF723FF641CFFF7A9FEFFF755FE691C89
:10542000C8B2FFF71AFF641CFFF7A0FE0020FFF7C9
:1054300073FF0446FFF778FE204670BD2DE9F0416A
:105440000746884615461E460024FFF73DFE3846AF
:10545000FFF703FFFFF78AFE4046FFF7FEFEFFF768
:1054600085FEFFF731FE791CC8B2FFF7F6FEFFF7A5
:105470007DFE00BF0DE0681EA04204D00120FFF7B2
:105480004BFF305503E00020FFF746FF3055601C0E
:10549000C4B2AC42EFDBFFF747FE2046BDE8F08127
:1054A000000C0140AC812142008021422DE9F041F5
:1054B00080460D4616461F460024FFF705FE40466F
:1054C000FFF7CBFEFFF752FE2846FFF7C6FEFFF7B9
:1054D0004DFE00BF06E0385DFFF7BFFEFFF746FE5A
:1054E000601CC4B2B442F6DBFFF71EFE0120BDE82B
:1054F000F08170B505460E46144631462846FFF742
:105500007AFF2070012070BD37B504460D4602AB0E
:10551000012229462046FFF7C9FF3EBD2DE9F84389
:105520000746884614461D46089E6A464146384648
:10553000FFF7DFFF28B3601CFF2101FA00F0C4F180
:1055400008012944491EFF220A41104300F0FF09C7
:10555000C5F1080006FA00F0C6B2C4F10700064122
:105560009DF8000000EA090000909DF8000030431B
:1055700000909DF8002041463846FFF7C5FFBDE882
:10558000F8830020FBE7F8B506460F4614461D4693
:105590006A4639463046FFF7ACFF2DB10120A040E6
:1055A0009DF80010084305E00120A0409DF8001080
:1055B00021EA0000C0B200909DF800203946304634
:1055C000FFF7A2FFF8BD00001FB501210846FDF757
:1055D000CBF801210820FDF7C7F80420ADF80C0036
:1055E00048208DF80F0003A91148FCF79BFD02210C
:1055F0000120FCF7ADFE0420019000208DF808008A
:105600000C208DF8090001208DF80A0001A8FCF794
:10561000A9FC08208DF8000001208DF801008DF80C
:1056200002008DF803006846FCF771F81FBD00000A
:10563000000C0140C848C9494860C94848607047E3
:10564000C648006940F08000C44908617047C348FB
:10565000C16801F0010008B10120704701F00400A9
:1056600008B10220F9E701F0100008B10320F4E7C7
:105670000020F2E770B5044600BFFFF7E8FF0546DB
:10568000012D00D006E00120FEF7FDF9601E84B276
:10569000002CF2D100BF04B9FF25284670BD70B5BB
:1056A0000546002445F6FF70FFF7E4FF0446C4B941
:1056B000AA48006940F00200A8490861084645610F
:1056C000006940F04000086145F6FF70FFF7D2FF27
:1056D0000446012C05D0A148006920F002009F4932
:1056E0000861204670BD70B505460E46FF20FFF7E5
:1056F000C1FF044694B99948006940F001009749F8
:1057000008612E80FF20FFF7B5FF0446012C05D06D
:105710009248006920F0010090490861204670BD60
:105720000146088870472DE9F04105460E461746A8
:10573000002407E036F814102846FFF7D4FFAD1C0C
:10574000601C84B2BC42F5DBBDE8F08130B5034695
:105750000C461546002207E01846FFF7E1FF24F843
:1057600012009B1C501C82B2AA42F5DB30BD2DE911
:10577000F05F80468A461746B8F1006F02D3794839
:10578000804501D3BDE8F09FFFF754FFA8F1006BFF
:105790004FEADB25CBF34909C9F58064A74200DC59
:1057A0003C464EE04FF0006101EBC5204A146E49C3
:1057B000FFF7CCFF00260BE009EB06006A4931F841
:1057C00010004FF6FF71884200D003E0701C86B2D3
:1057D000A642F1DB00BFA6421BDA4FF0006101EBED
:1057E000C520FFF75CFF002608E03AF8160006EB3C
:1057F00009015D4A22F81100701C86B2A642F4DB52
:105800004FF0006101EBC5204A145749FFF78BFFA9
:1058100004E0224651464046FFF785FFA74200D1EB
:1058200010E06D1C4FF000090AEB440A08EB440835
:10583000381B87B2B7F5806F02DD4FF4806400E05B
:105840003C46AFE700BFFFF7FBFE00BF9AE713B58A
:105850000446012201A92046FFF789FF1CBD10B5AF
:105860000A2242494248FFF771FF404800884FF63C
:10587000FF71884218D13D484088884214D13B4886
:105880008088884210D13948C08888420CD1394874
:105890003949086039483A4908603A483A49086045
:1058A0003A483B49086027E03049088807F054FE31
:1058B0000446384907F006FD2F4908602B494888FF
:1058C00007F04AFE0446334907F0FCFC2C49086007
:1058D0002649888807F040FE04462E4907F0F2FC6E
:1058E000294908602149C88807F036FE044629493D
:1058F00007F0E8FC2649086010BD10B525491E4890
:10590000006807F071FE044607F0EEFD22490880AA
:1059100020491B48006807F067FE044607F0E4FDD5
:105920001D4948801B491848006807F05DFE044681
:1059300007F0DAFD1849888016491548006807F015
:1059400053FE044607F0D0FD1349C8800A220848D8
:10595000FFF70DFF10BD0000230167450020024046
:10596000AB89EFCD000004085A0B00207402002020
:1059700000E000080080934344000020A470BD3F75
:10598000480000203D8ACE424C000020295C0F3F99
:10599000500000200000C8428802002010B586B0E8
:1059A000044601210420FCF7DFFE01218803FCF7F7
:1059B000DBFE4FF40070ADF8140003208DF81600E4
:1059C00018208DF8170005A9F948FCF7ABFB4FF438
:1059D0008060ADF8140004208DF8170005A9F44884
:1059E000FCF7A0FB25208DF8000000208DF80100B9
:1059F00001208DF802008DF803006846FBF787FE52
:105A000001940020ADF80800ADF80A00ADF80C00D4
:105A1000ADF810000C20ADF80E0001A9E548FDF727
:105A200058FE012240F22551E248FDF7EAFE01212D
:105A3000E048FDF7DAFE06B010BD2DE9FF5F40F249
:105A40002551DC48FDF7C2FF002874D040F22551F3
:105A5000D848FDF7E5FF0120D7490870D548FDF784
:105A600035FFD649086008460078D5490870D34804
:105A70000068592802D10220D2490870CF48006836
:105A8000582802D10120CF490870CC48006862280C
:105A900007D1CD48007808B9012000E00020CA49AC
:105AA0000870C6480068612807D1C848007808B95E
:105AB000012000E00020C5490870C548007820B1E9
:105AC000C2480078401CC2490870BC4800680A28D7
:105AD0006ADD0020BF490860BF490860B748006818
