:020000040800F2
:10000000C818002021160008410400084304000815
:10001000470400084B0400084F04000800000000DB
:100020000000000000000000000000005304000871
:100030005504000800000000570400089539000826
:100040003B1600083B1600083B1600083B1600084C
:100050003B1600083B1600083B1600083B1600083C
:100060009B6F00083B1600083B160008DF070008DE
:100070003B1600083B1600083B1600083B1600081C
:100080003B1600083B160008430900083B16000811
:10009000F16200083B1600083B1600083B160008FA
:1000A0003B1600083B1600083B1600083B160008EC
:1000B0003150000879460008115000083B1600082E
:1000C0003B1600083B1600083B1600083B160008CC
:1000D0003B160008F75900083B1600083B160008BD
:1000E0003B1600083B1600083B1600083B160008AC
:1000F0002D4900083B160008074800083B16000879
:100100003B1600083B160008754B00083B1600081C
:100110003B1600083B1600083B160008BB4B0008C6
:100120003B1600083B1600083B1600083B1600086B
:10013000DFF80CD00BF05EFE0048004763020008B9
:10014000C818002030BF72B662B680F308887047C6
:1001500010B50821AF4802F018F840B10421AE48AC
:1001600002F013F818B10020AC4908701AE0082119
:10017000A84802F00AF840B90421A74802F005F89F
:1001800018B10220A54908700CE00821A14801F02F
:10019000FCFF38B10421A04801F0F7FF10B901209D
:1001A0009E49087010BD10B5002400BF17E09C48A0
:1001B00030F814009B4901EB8411C887994800EB83
:1001C0008411202000F037FB964800EB841120209A
:1001D00000F0E3FB944921F81400601CC4B2062C23
:1001E000E5DB10BD10B58E49032000F03AFB8C49C9
:1001F000891C042000F035FB8949091D052000F009
:1002000030FB8749891D062000F02BFB844908310B
:10021000072000F026FB82490A310E2000F021FB66
:10022000FFF7C1FF10BD08B50121082002F03CFA1C
:100230000820ADF8000048208DF803006946754895
:1002400001F010FF0121082002F02EFA0420ADF881
:10025000000048208DF8030069466F4801F002FF56
:1002600008BD08B503F0A3FB0121042002F01CFA2D
:100270000121082002F018FA0121102002F014FADE
:100280000121202002F010FA0121084602F00CFAA8
:100290000121664801F0B7FF00F0D8FCFFF7C3FF6B
:1002A0004FF4FA3003F03EFC03F0E4FD03F014FEDB
:1002B000022003F087FC002141F61F4004F09CFD62
:1002C0004FF4165005F048FB04F0EEFD04F039FE43
:1002D00000221146104600F0FDF90121544801F0BA
:1002E000B2FA4FF47A720321084604F025FB032189
:1002F000052004F0BEFC00F063FF4FF4AF6340F64E
:10030000C4124FF4FA71002000F0FAFD09230E2206
:100310004849002000F0CFFF4FF4AF6340F6C4120D
:100320004FF4FA71012000F0EBFD09230E22414940
:10033000012000F0C0FF01E0FFF754FF3A48818838
:10034000002001F00BF80028F6D001E0FFF74AFF8B
:100350003548C188012001F001F80028F6D04FF49B
:10036000FA7003F084FB04F079FE0AF074F90AF0E5
:1003700086F903F0DEFF47214FF6FF7004F0F6F830
:1003800000200623032202210090012005F05AFDDF
:1003900005F0F8F80AF06CFE3AE0274800780128EA
:1003A00004D105F088FA002023490870234800781A
:1003B00010B90AF0A9FB01E00AF0FDFCFFF712FFFB
:1003C0001948828841880023184600F047FF1648E4
:1003D000C28841880023012000F040FF124948886C
:1003E00004F08FF81049088900F0ECFA0E494889AA
:1003F00000F0BEFB00F01FFC00F04BFC00F099FC8D
:1004000000F0BBFCFFF7A4FE01F045F80AF089FFFD
:10041000C3E70000000C0140001401403A00002036
:10042000B8020020F8020020C402002000023000C0
:10043000002401406F12833A3C0000200700002096
:10044000704700BFFEE700BFFEE700BFFEE700BF4A
:10045000FEE77047704770470CB500200190009090
:100460006C48006840F480306A49086000BF694801
:10047000006800F4003000900198401C0190009842
:1004800018B90198B0F5A06FF1D16248006800F486
:10049000003010B10120009001E000200090009891
:1004A000012843D15C48006840F010005A490860B8
:1004B0000846006820F0030008600846006840F025
:1004C0000200086053484068524948600846406846
:1004D00048600846406840F48060486008464068CC
:1004E00020F47C1048600846406840F4E8104860FA
:1004F0000846006840F08070086000BF454800680A
:1005000000F000700028F9D04248406820F0030055
:10051000404948600846406840F00200486000BF1B
:100520003C48406800F00C000828F9D10CBD10B51B
:10053000FFF792FF10BD10B53648006840F001008B
:1005400034490860084640683449084031494860E9
:1005500008460068324908402E490860084600688D
:1005600020F4802008600846406820F4FE004860BF
:100570004FF41F008860FFF7DAFF4FF00060294951
:10058000086010BD10B5002100200022214B5B68DF
:1005900003F00C0121B1042906D0082928D107E075
:1005A000214B224C236027E01F4B204C236023E08B
:1005B000184B5B6803F47010164B5B6803F48032D1
:1005C000022303EB904022B9194B4343174C23609D
:1005D0000DE0104B5B6803F4003323B1144B43432D
:1005E000124C236003E0104B4343104C236003E0A4
:1005F0000D4B0E4C236000BF00BF064B5B68C3F37E
:1006000003130C4CE15C094B1B68CB40074C236087
:1006100010BD000000100240002002400000FFF862
:10062000FFFFF6FE08ED00E000127A0080000020D7
:1006300000093D008400002008B510208DF803005B
:100640003020ADF8000001208DF802006946FE4818
:1006500001F008FD08BD08B54FF4806000F0F2FF1E
:100660000B208DF8000007208DF8010000208DF888
:10067000020001208DF80300684600F0E8FF012128
:10068000084602F004F8F14801F0D4FAF048F149C4
:100690000860F1484860002088600620C86000209B
:1006A000086180204861400088618000C861202086
:1006B00008620002486200208862E44801F05CFBA6
:1006C00001220221E14801F08EFB0121DF4801F007
:1006D0007EFB08BD70B586B004460E461546DF4861
:1006E00005610121480201F0DFFF00200190012097
:1006F0008DF808008DF809004FF460200390002069
:10070000049006208DF8140000208DF803000320CB
:100710008DF80200012C01DB06B070BDF820ADF8A9
:1007200000006946CE4801F09DFC1020ADF80000A5
:100730006946CC4801F096FC01A9C5484C3801F047
:1007400016F8072301220321C1484C3801F0A7F80D
:10075000072302220421BE484C3801F0A0F80723E9
:1007600003220521BA484C3801F099F807230422E6
:100770000621B7484C3801F092F8072305221946A4
:10078000B3484C3801F08BF8072306220E21B048FD
:100790004C3801F084F8FFF75EFF0121AC484C387B
:1007A00001F01CF80121AA484C3801F00CF8A848C7
:1007B0004C3801F02AF800BFA5484C3801F02AF85F
:1007C0000028F9D1A2484C3801F02EF800BFA0480B
:1007D0004C3801F02EF80028F9D100BF9CE710B585
:1007E0000024022001F02DFB78B1012001F03DFB37
:1007F00000BF08E0984830F814109848801C20F892
:100800001410601CC4B2062CF4DB10BD30B50246D7
:100810000B460021002000BF0AE003EB41042CB18D
:1008200033F81140551A2C410444A0B24C1CE1B2DB
:100830009142F2DB30BD0246002000BF0DE001EB2B
:10084000400343B1431C01EB430323B1431C31F884
:10085000133021F81030431CD8B2531E8342EEDC13
:10086000704730B504460D46032C0CD17E4910204C
:10087000FFF7E1FF794840887B49C8831020FFF7E4
:10088000C5FF28805CE0042C0FD17749203110206F
:10089000FFF7D1FF714881887348C18700F12001BB
:1008A0001020FFF7B3FF28804AE0052C10D16E49D5
:1008B00040311020FFF7BFFF6848C1886A48A0F8A0
:1008C0005E1000F140011020FFF7A0FF288037E004
:1008D000062C10D1644960311020FFF7ACFF5F484F
:1008E00001896148A0F87E1000F160011020FFF737
:1008F0008DFF288024E0072C10D15B498031102027
:10090000FFF799FF554841895748A0F89E1000F11C
:1009100080011020FFF77AFF288011E00E2C0FD104
:100920005149A0311020FFF786FF4C4881894E487D
:10093000A0F8BE1000F1A0011020FFF767FF28808B
:1009400030BD10B500244FF4087141484C3801F017
:10095000F7F870B13E484C3801F008F804463F48BB
:100960000169204688474FF4087139484C3801F036
:10097000F9F84FF408713D4801F0E2F860B13B48E6
:1009800000F0F4FF04464FF40871384801F0EAF82B
:100990003248416A2046884710BD10B502460B46D2
:1009A0000021002400BF07E003EB410010B133F841
:1009B00011000444481CC1B29142F5DBB4FBF2F4CF
:1009C000A0B210BD2DE9F05F83464FF0000A5846F3
:1009D0000BF007F8804642460B46002024490AF0F7
:1009E00072FF06460022234B0AF0FBFE04460BF082
:1009F00051F8214908802148D0F81401098888421B
:100A00006CDB1E48D0F89C011B490988884242DBF8
:100A10004FF0330A3BE0194800EBCA004068164922
:100A20000988884231DD15490AF1010001EBC00057
:100A3000406811490988884227DC10490AF1010001
:100A400051F830000E491DE0000C01400800024042
:100A50004C240140AC040020A004002078040020B5
:100A60000008014000100140D80400200028014087
:100A70000000C0400000594098000020DCD1000870
:100A80009C0000200860BDE8F09F0AF1010ABAF15D
:100A9000440FC0DB6AE04FF0220A1BE0FE4800EB87
:100AA000CA004068FD490988884211DDFA490AF107
:100AB000010001EBC0004068F8490988884207DC62
:100AC000F5490AF1010051F83000F5490860DAE70C
:100AD0000AF1010ABAF1330FE0DB47E0EE48D0F843
:100AE0008C00EE490988884220DD4FF0110A19E098
:100AF000E94850F83A00E9490988884210DDE6499A
:100B00000AF1010051F83000E4490988884207DC05
:100B1000E1490AF1010051F83000E1490860B2E70B
:100B20000AF1010ABAF1220FE2DB1FE04FF0000ADE
:100B300019E0D94850F83A00D8490988884210DDB0
:100B4000D5490AF1010051F83000D449098888429A
:100B500007DCD1490AF1010051F83000D0490860A2
:100B600091E70AF1010ABAF1110FE2DB00BF8AE74F
:100B70002DE9F041044640F6C410844214DB2046BF
:100B80000AF019FF0746C748016838460AF012FD07
:100B90000646C548016830460AF009FD05460AF0D8
:100BA0002DFFC249086044E0B4F5C86F14DB20464D
:100BB0000AF001FF0746BE48016838460AF0FAFC11
:100BC0000646BC48016830460AF0F1FC05460AF0CA
:100BD00015FFB64908602CE040F2DE30844214DB99
:100BE00020460AF0E8FE0746B348016838460AF096
:100BF000E1FC0646B148016830460AF0D8FC0546DB
:100C00000AF0FCFEA949086013E020460AF0D3FE72
:100C10000746AB48016838460AF0CCFC0646A948AE
:100C2000016830460AF0C3FC05460AF0E7FE9F491A
:100C30000860BDE8F08110B503F0EFFCA248006841
:100C4000A249086010BD99480068704708B528207F
:100C50008DF803001020ADF8000001208DF802008F
:100C600069469B4801F0FEF910208DF80300202012
:100C7000ADF8000001208DF802006946944801F0AB
:100C8000F1F908BD00BF0100A0F1010290B2FAD154
:100C9000704710B500248F48008805283FDB0020EE
:100CA0008C49088010218A4801F06FFA00283AD157
:100CB0000520FFF7E7FF00BF1AE087480068400003
:100CC000854908602021824801F079FA0520FFF764
:100CD000D9FF20217E4801F074FA10217C4801F0F0
:100CE00054FA7D49096808437B490860601CC4B216
:100CF000182CE2DB2021764801F061FA0520FFF78D
:100D0000C1FF7548006880F4000074490860202124
:100D10006F4801F056FA00206F49086003E0202177
:100D20006B4801F04EFA6B480088401C6949088006
:100D300010BD2DE9F0476948006869490968884293
:100D400016D966490968664A1268881A0AF049FE87
:100D500006460022634B0AF044FD04460022624B23
:100D60000AF0B1FD80460AF076FE6049086002E0B4
:100D700000205E490860BDE8F08738B50C200223EA
:100D800000905B4802780021084603F066FA594853
:100D900000684FF47A7190FBF1F40C200123224695
:100DA00000210090282003F058FA524800684FF4C0
:100DB0007A7190FBF1F201FB1200642190FBF1F4D7
:100DC0000C200123224600210090302003F045FA38
:100DD00048480068642190FBF1F201FB12000A21EF
:100DE00090FBF1F40C2001232246002100903820D2
:100DF00003F033FA3F4800680A2190FBF1F201FB4F
:100E000012040C200123224600210090402003F010
:100E100024FA394800684FF47A7190FBF1F40C2001
:100E200001232246002100905A2003F016FA32488E
:100E300000684FF47A7190FBF1F201FB120064211B
:100E400090FBF1F40C200123224600210090622047
:100E500003F003FA28480068642190FBF1F201FBDB
:100E600012000A2190FBF1F40C20012322460021FC
:100E700000906A2003F0F1F91F4800680A2190FBF6
:100E8000F1F201FB12040C20012322460021009004
:100E9000722003F0E2F938BDDCD100089800002090
:100EA0009C000020A4000020A8000020C400002016
:100EB000AC000020B0000020B4000020B8000020EA
:100EC000BC000020C000002034000020C80000202A
:100ED000000C0140DC000020D0000020CC000020ED
:100EE000D40000200000F03F00205A40D80000202D
:100EF000B002002060000020640000207047000065
:100F00002DE9F05F0446894692469B4604EB840037
:100F1000FE4901EB0010A0F81AA004EB840001EBDD
:100F20000010A0F8189004EB840001EB0010A0F86A
:100F300016B004EB8401F54A02EB0111C88A0AF0ED
:100F400050FD0746F24AF34B0AF04BFC05460AF007
:100F5000A1FD04EB8401ED4A02EB01118883BDE899
:100F6000F09F002000BF27E100EB8001E74A02EB81
:100F70000111097929B300EB800102EB01114989C4
:100F8000491C00EB8002E14B03EB0212518100EBA4
:100F900080011A4602EB0111498900EB800203EB44
:100FA0000212128B914213DB002100EB800203EB53
:100FB00002125181012100EB800203EB0212117039
:100FC00006E0002100EB8002D04B03EB02125181BE
:100FD00000EB8001CD4A02EB0111097819B300EB57
:100FE000800102EB01118989491C00EB8002C74B8B
:100FF00003EB0212918100EB80011A4602EB011112
:10100000898900EB800203EB0212528B91420ADBCA
:10101000002100EB800203EB0212918100EB8002C1
:1010200003EB0212117000EB8001B84A02EB0111D0
:10103000497929B300EB800102EB0111098A491CAF
:1010400000EB8002B14B03EB0212118200EB800136
:101050001A4602EB0111098A00EB800203EB02122F
:10106000128B914213DB002100EB800203EB021292
:101070001182012100EB800203EB0212517006E0A5
:10108000002100EB8002A14B03EB0212118200EB66
:1010900080019E4A02EB0111497819B300EB8001EF
:1010A00002EB0111C989491C00EB8002974B03EB4D
:1010B0000212D18100EB80011A4602EB0111C989AD
:1010C00000EB800203EB0212528B91420ADB0021FB
:1010D00000EB800203EB0212D18100EB800203EBF4
:1010E0000212517000EB8001884A02EB01118979EC
:1010F00001B300EB800102EB0111498A491C00EBAE
:101100008002824B03EB0212518200EB80011A46EF
:1011100002EB0111498AC82918DB002100EB80028B
:1011200003EB02125182012100EB800203EB021259
:1011300091700BE0002100EB8002744B03EB021274
:10114000518200EB800203EB0212917000EB8001F0
:101150006E4A02EB0111C97901B300EB800102EB89
:101160000111898A491C00EB8002684B03EB0212D3
:10117000918200EB80011A4602EB0111898AC8298D
:1011800018DB002100EB800203EB021291820121A7
:1011900000EB800203EB0212D1700BE0002100EBA8
:1011A00080025A4B03EB0212918200EB800203EBA8
:1011B0000212D170411CC8B20228FFF6D5AE7047AA
:1011C0002DE9F041002400BF3FE04FF4FA7004EB3A
:1011D00084014E4A02EB01110883C00004EB840134
:1011E00002EB0111C88240F6B83004EB840102EB37
:1011F00001114883002004EB840102EB01114884B3
:1012000004EB840102EB0111088204EB840102EB80
:101210000111C88A0AF0E5FB07463F4A3F4B0AF036
:10122000E0FA05460AF036FC04EB8401374A02EB8B
:101230000111888304EB840002EB001000F1080127
:10124000012003F021FD601CC4B2022CBDDBAFF213
:10125000ED21032003F050FCBDE8F08130B500EB38
:1012600080042A4D05EB0414628400EB800405EB36
:101270000414A38400EB800405EB0414218430BD26
:1012800070B5049C31B100EB8005204E06EB0515CE
:101290002D780D7032B100EB80051C4E06EB051564
:1012A0006D78157033B100EB8005184E06EB05150F
:1012B000AD781D7070BD2DE9FF4F83B00446914697
:1012C0009A4648460AF077FB019004990AF072F9B1
:1012D00083464FF08B410AF06DF902900AF0F3FB60
:1012E00005464FF066320E4B0AF0EDFA07460AF05B
:1012F000D1FB04EB8401054A02EB0111088550463D
:101300000AF059FB019004990CE0000098050020B8
:10131000AC1C5A643BDFD73F022B8716D9CEE73F80
:1013200066660A400AF046F94FF08B4102900AF0D7
:1013300041F983460AF0C7FB07464FF06632B44BCB
:101340000AF0C1FA05460AF0A5FB04EB8401B14A94
:1013500002EB0111488507B0BDE8F08F70B5044677
:101360000D460026AC48005D20B1012817D00228A8
:1013700014D16BE004EB8401A64A02EB0111087A58
:10138000C82103F0A5FC04EB8401A24A02EB011181
:10139000087A03F0ACFC01209F49085578E004EB83
:1013A00084019C4A02EB0111087A03F0BDFC98B15C
:1013B00004EB8401974A02EB0111087A03F0A5FCC3
:1013C00004EB8401934A02EB0111087A03F0C8FC94
:1013D00002209149085538E000209049087019E032
:1013E00004EB84008B4901EB00103C308B490978F9
:1013F000491C30F8111004EB8400864A02EB0010FF
:101400003C30864A127820F8121084480078401C3C
:1014100082490870814800780728E1DB04EB8400EA
:101420007C4901EB0010A0F84A5004EB84000A4606
:1014300002EB001000F13C010820FFF7E7F904EB94
:101440008401744A02EB0111088621E0012604EBB5
:101450008400704901EB0010008E04EB84016D4A9A
:1014600002EB0111898B084404EB840102EB0111AA
:10147000C88304EB8400114601EB0010008E04EBDE
:10148000840102EB0111C88500206349085500BFA3
:1014900000BF304670BD002000BFB3E000EB80010C
:1014A0005C4A02EB0111498C00EB8002594B03EBC3
:1014B0000212D28D891A00EB800203EB02129163B3
:1014C00000EB80011A4602EB0111496B00EB800230
:1014D00003EB0212926B114400EB800203EB021249
:1014E000516300EB80011A4602EB0111498C00EBBD
:1014F000800203EB0212D18500EB80011A4602EB59
:101500000111496B002912DD00EB800102EB011192
:10151000496B00EB800203EB0212928B914206DBD7
:10152000012100EB800203EB0212117106E00021A1
:1015300000EB8002374B03EB0212117100EB8001CC
:10154000344A02EB0111498C00EB8002314B03EB72
:101550000212D28B914206DB012100EB800203EBE9
:101560000212517106E0002100EB8002294B03EBCF
:101570000212517100EB8001264A02EB0111098D24
:1015800029B100EB800102EB0111498D01B97047CF
:1015900000EB80011F4A02EB0111098C00EB800275
:1015A0001C4B03EB0212128D914206DB012100EB72
:1015B000800203EB0212917106E0002100EB800231
:1015C000144B03EB0212917100EB8001114A02EB04
:1015D0000111098C00EB80020E4B03EB0212528DBD
:1015E000914206DC012100EB800203EB0212D17173
:1015F00006E0002100EB8002064B03EB0212D171E2
:10160000411CC8B20228FFF649AF00BFBFE7000087
:1016100066660A4098050020DE000020E0000020F9
:101620000648804706480047FEE7FEE7FEE7FEE77C
:10163000FEE7FEE7FEE7FEE7FEE7FEE73705000808
:101640003101000831490143314A1160704770B5DA
:10165000002100230F22C47804B32D4C246804F425
:10166000E064C4F5E064210AC1F10403CA4044788F
:1016700004FA03F18478144021430901254C0678CB
:10168000A155047804F01F050124AC4005786D11C4
:10169000AD0005F1E025C5F8004109E0047804F04B
:1016A0001F050124AC401C4D0678761145F82640F4
:1016B00070BD1A4A0A400243154B1B1F1A6070473F
:1016C00039B1134A121D12680243114B1B1D1A60D7
:1016D00006E00F4A121D126882430D4B1B1D1A6053
:1016E0007047042808D14FF0E021096941F0040156
:1016F0004FF0E022116107E04FF0E021096921F08D
:1017000004014FF0E0221161704700000000FA056B
:101710000CED00E000E400E080E100E080FFFF1F4E
:1017200010B50446FA48844208D10121401500F062
:10173000D5FF0021601500F0D1FF17E0F548844285
:1017400008D10121001500F0C9FF0021201500F08B
:10175000C5FF0BE0F048844208D10121C80300F026
:10176000BDFF00214FF4004000F0B8FF10BD30B5C0
:101770000246002000235068E84C20400D790C6898
:1017800044EA0524204350609068E54C2040D1E9AC
:1017900002542C434D7944EA450420439060D06ABA
:1017A00020F470000C7C641EE4B2234340EA035032
:1017B000D06230BD00210160017141718160C16062
:1017C00001210174704721B1826842F001028260F8
:1017D00003E0826822F001028260704721B18268D2
:1017E00042F48072826003E0826822F48072826038
:1017F000704710B50023CBB21AB144681C43446053
:1018000002E044689C43446010BD816841F00801D7
:1018100081607047014600208A6802F008020AB120
:10182000012000E000207047816841F004018160E0
:101830007047014600208A6802F004020AB10120C4
:1018400000E00020704721B1826842F4A00282606B
:1018500003E0826822F4A002826070470146002003
:101860008A6802F480020AB1012000E0002070477B
:1018700010B50A4600210023416821F46041531E3F
:1018800041EA4331416010BD21B1426842F4006237
:10189000426003E0426822F4006242607047F0B5A3
:1018A00004460D4600200021092D11DDE068A5F158
:1018B0000A0606EB4607072606FA07F18843A5F154
:1018C0000A0606EB460603FA06F10843E0600CE060
:1018D000206905EB4507072606FA07F1884305EB63
:1018E000450603FA06F108432061072A0FDA606B08
:1018F000561E06EB86071F2606FA07F18843561E7A
:1019000006EB860605FA06F10843606322E00D2A1D
:101910000FDA206BD61F06EB86071F2606FA07F1A3
:101920008843D61F06EB860605FA06F108432063B6
:1019300010E0E06AA2F10D0606EB86071F2606FA04
:1019400007F18843A2F10D0606EB860605FA06F1BB
:101950000843E062F0BD21B1826842F480128260E7
:1019600003E0826822F48012826070470146C86CEE
:1019700080B2704766484C300068704721B14268B9
:1019800042F48062426003E0426822F48062426076
:10199000704721B1426842F48052426003E04268DD
:1019A00022F48052426070470A460021816821F487
:1019B000E04111438160704721B1826842F40042E6
:1019C000826003E0826822F400428260704721B1A5
:1019D000826842F40212826003E0826822F40212FA
:1019E00082607047014600208A6802F400120AB142
:1019F000012000E000207047F0B5044615460020A5
:101A000000220026092911DDE068A1F10A0707EB91
:101A1000470C072707FA0CF29043A1F10A0707EBDE
:101A2000470703FA07F21043E0600CE0206901EB7E
:101A3000410C072707FA0CF2904301EB410703FA28
:101A400007F210432061A06BC0F30156EF1C06F1B2
:101A5000010CA7EB0C0707EB870C1F2707FA0CF20A
:101A60009043EF1C06F1010CA7EB0C0707EB87076F
:101A700001FA07F21043A063F0BD10B50A46002139
:101A80000023816B21F44011531E41EA035181630D
:101A900010BD08B5002300930090009B0B440093F9
:101AA000009B1A6008BD08B5024600200090009215
:101AB00001F12800009B184400900098006880B253
:101AC00008BD0A4600214168164B19401143416088
:101AD00070474162826270470A460021416821F0E6
:101AE0001F0111434160704740B10949083109683D
:101AF00041F40001064A0832116007E00449083148
:101B0000096821F40001024A0832116070470000A0
:101B10000024014000280140003C0140FFFEF0FF8E
:101B2000FDF7F1FFFFFD3FFF0246002013680B4069
:101B30000BB1012000E000207047CA4302607047EB
:101B400070B502460020002300240B125568CEB267
:101B500005EA060415681D4015B10CB1012000E02E
:101B6000002070BD00220A12D343036070470000BA
:101B700010B5012000F0CCFD002000F0C9FD10BD23
:101B80002A49086070472949091F0860704727499A
:101B900084310860704701460020254A10884FF6BE
:101BA0007F4210400843224A1080704701460020BF
:101BB0001F4A10884FF68072104008431C4A10805C
:101BC000704708B500220092194A2C3A0092009AF8
:101BD00002440092009A116008BD08B50146002039
:101BE000009013482C38009000980844009000980A
:101BF000008808BD0D489C300068C0B270470C4892
:101C00000830008840F00100094908310880704719
:101C10000648A0300068C0B2704705480830008808
:101C200040F00200024908310880704704860D42E6
:101C30002C6C004001684FF6FE72114001600021DB
:101C4000016041608160C1608D49884208D18C4942
:101C50000839496841F00F01894A083A51608AE021
:101C600087491431884208D185490839496841F0CB
:101C7000F001834A083A51607DE081492831884269
:101C800008D17F490839496841F470617C4A083AB3
:101C9000516070E07A493C31884208D1784908396E
:101CA000496841F47041764A083A516063E07449EA
:101CB0005031884208D172490839496841F470218D
:101CC0006F4A083A516056E06D496431884208D144
:101CD0006B490839496841F47001694A083A516012
:101CE00049E067497831884208D16549083949682F
:101CF00041F07061624A083A51603CE061498842B3
:101D000006D1011F096841F00F01021F116032E086
:101D10005C491431884208D15A49091F096841F0C9
:101D2000F001584A121F116025E0564928318842B7
:101D300008D15449091F096841F47061514A121FC2
:101D4000116018E04F493C31884208D14D49091FC4
:101D5000096841F470414B4A121F11600BE0494978
:101D60005031884207D14749091F096841F4702161
:101D7000444A121F1160704710B50022026847F6EE
:101D8000F0739A430C6A8B6823430C6923434C69B4
:101D900023438C692343CC6923434C6A23438C6AD5
:101DA00023431A430260CB6843600B6883604B682F
:101DB000C36010BD0021016041608160C1600161AC
:101DC00041618161C161016241628162704721B1FB
:101DD000026842F00102026004E002684FF6FE73FE
:101DE0001A40026070471AB103680B43036002E0B7
:101DF00003688B4303607047416070470146486841
:101E000080B2704701460020002201F080531BB1D0
:101E10001C4B083B1A6802E0194B083B1A6802EA9F
:101E200001030BB1012000E00020704700F0805159
:101E300019B11449091F086002E0114908394860C6
:101E4000704701460020002201F080531BB10D4B6A
:101E5000083B1A6802E00A4B083B1A6802EA0103D1
:101E60000BB1012000E00020704700F0805119B153
:101E70000449091F086002E00149083948607047B9
:101E80000800024008040240002044490860091D7F
:101E90000860091D0860091D086041483F49143168
:101EA0000860704700213D498279002A3AD00A46ED
:101EB000126803689A430B461A600A1D1268036889
:101EC0009A430B1D1A60027911440A6803681A4389
:101ED0000A60324A0832126803689A432F4B08336B
:101EE0001A601A1D126803689A432C4B0C331A604F
:101EF0004279102A0ED11A1F126803681A43274B21
:101F000008331A601A1D126803681A43234B0C33F6
:101F10001A600DE02149427911440A6803681A43A6
:101F20000A6005E0027911440A6803689A430A606E
:101F300070470021016001710C2141710021817104
:101F400070471649103109680143144A1032116074
:101F5000704701460020114A143212680A400AB143
:101F6000012000E0002070470C49143108607047E0
:101F7000014600200022094B1B6803EA0102074BBF
:101F800014331B680B4013B10AB1012000E000209C
:101F90007047024914310860704700000004014096
:101FA000FFFF0F0010B50446CC48844208D1012140
:101FB000042000F093FB0021042000F08FFB46E09A
:101FC000C748844208D10121082000F087FB002186
:101FD000082000F083FB3AE0C248844208D1012186
:101FE000102000F07BFB0021102000F077FB2EE09A
:101FF000BD48844208D10121202000F06FFB002160
:10200000202000F06BFB22E0B848844208D1012177
:10201000402000F063FB0021402000F05FFB16E051
:10202000B348844208D10121802000F057FB0021F1
:10203000802000F053FB0AE0AE48844207D1012122
:10204000801500F04BFB0021A01500F047FB10BDF0
:1020500010B50121084600F041FB0021012000F0ED
:102060003DFB10BD2DE9F041024600250026002071
:1020700000230024002791F803C00CF00F0591F80D
:1020800003C00CF0100CBCF1000F03D091F802C09B
:102090004CEA050591F800C0BCF1000F31D014687E
:1020A00000202BE04FF0010C0CFA00F3B1F800C057
:1020B0000CEA03069E4220D183004FF00F0C0CFA6D
:1020C00003F7BC4305FA03FC4CEA040491F803C08F
:1020D000BCF1280F06D14FF0010C0CFA00FCC2F83D
:1020E00014C00AE091F803C0BCF1480F05D14FF0CD
:1020F000010C0CFA00FCC2F810C0401C0828D1D317
:102100001460B1F800C0BCF1FF0F34DD546800204A
:102110002EE000F1080C4FF0010808FA0CF3B1F8BA
:1021200000C00CEA03069E4221D183004FF00F0C41
:102130000CFA03F7BC4305FA03FC4CEA040491F8DB
:1021400003C0BCF1280F05D100F1080C08FA0CF807
:10215000C2F8148091F803C0BCF1480F07D100F118
:10216000080C4FF0010808FA0CF8C2F81080401C67
:102170000828CED35460BDE8F0814FF6FF7101808E
:10218000022181700421C1707047024600209368CB
:102190000B400BB1012000E0002070470146886829
:1021A00080B2704702460020D3680B400BB101207B
:1021B00000E0002070470146C86880B270470161A6
:1021C0007047416170470AB1016100E041617047A9
:1021D000C16070474FF480320A438261816182613D
:1021E00082698269704702460020434B18684FF6A7
:1021F0008073184040EA021008433F4B1860704754
:102200003E49C8617047F0B50A460023002400210A
:10221000002500F00046B6F1004F02D1364EF169BC
:1022200001E0354E7168C0F3034583B200F44016F7
:10223000B6F5401F08D121F070612F4E766826F068
:1022400070662D4F7E6012E000F48016B6F5801F98
:1022500006D1032606FA05F4A14341F0706106E0B9
:10226000460D360103FA06F6B14341F0706122B122
:10227000460D360103FA06F6314300F00046B6F18A
:10228000004F02D11C4EF16101E01B4E7160F0BDA8
:1022900030B500228B071C0F0F2303FA04F2164BF4
:1022A00008338C1053F824309343134C08348D10AA
:1022B00044F8253023468C1053F824308C07240F23
:1022C00000FA04F423430C4C08348D1044F82530F4
:1022D00030BD0A49DC310860704700000008014049
:1022E000000C0140001001400014014000180140A2
:1022F000001C01400020014000000140000020427D
:1023000010B50121080700F0F6F900214FF08050C8
:1023100000F0F1F910BD2A490862704728490861A8
:10232000704701460020274A106820F0E00008436B
:10233000106070472249A0310860704710B502460E
:102340000020204B186820F00300104318601E4B3B
:102350001B6843F004031C4C2360012901D130BFEA
:1023600000E020BF184B1B6823F00403164C2360C9
:1023700010BD1448006840F0040012490860084687
:10238000006840F0020008600F48006840F0040058
:102390000D49086000BF00BF30BF704701460020F4
:1023A000084A52680A400AB1012000E00020704744
:1023B0000449096841EA8001024A1160704700003F
:1023C00000000E420070004010ED00E0DF480068A1
:1023D00040F00100DD49086008464068DC490840DB
:1023E000DA49486008460068DA490840D749086079
:1023F0000846006820F4802008600846406820F401
:10240000FE0048604FF41F0088607047CF4909689C
:1024100021F48031CD4A11601146096821F48021F0
:102420001160B0F5803F03D0B0F5802F0ED106E0EB
:10243000C649096841F48031C44A116007E0C349C4
:10244000096841F4A021C14A116000E000BF00BF4B
:10245000704710B501460022002300204A11012ACE
:1024600002D1BA4C236806E0022A02D1B74C236A93
:1024700001E0B64C636A01F01F02012494401C4045
:102480000CB1012000E0002010BD38B50020009004
:102490000024002500BF3120FFF7DBFF0546009830
:1024A000401C00900098B0F5A06F01D0002DF2D034
:1024B0003120FFF7CEFF08B1012400E000242046C0
:1024C00038BD01460020A14A106820F0F80040EA1B
:1024D000C10010607047A0490860704702460020A4
:1024E0009A4B586820F47C1042EA01031843974B3A
:1024F0005860704798490866704701460020934A23
:10250000506820F003000843506070478F484068CF
:1025100000F00C007047014600208C4A506820F003
:10252000F00008435060704701460020874A506819
:1025300020F4E06008435060704701460020834A61
:10254000506820F4605040EAC1005060704729B1E3
:102550007E4A527A02437D4B5A7204E07B4A527A99
:1025600082437A4B5A7270477B49D8310860704772
:1025700001460020754A506820F4404008435060EE
:1025800070470021714A20321170704A82F8201081
:10259000012802D004280AD104E001216B4A20322C
:1025A000117005E00521694A2032117000E000BF7A
:1025B00000BF70476949086070476449096A014370
:1025C000624A11627047654944390860704730B506
:1025D00000210022002400235C4D6D6805F00C01F1
:1025E00021B1042905D0082923D105E05C4D0560FF
:1025F00022E05B4D05601FE0544D6D6805F47012DC
:10260000524D6D6805F48034022505EB92421CB9E9
:10261000544D554305600BE04C4D6D6805F4003595
:102620001DB1504D5543056002E04D4D55430560C9
:1026300002E04B4D056000BF00BF444D6D6805F0E2
:10264000F0010909484D6B5C0568DD4045603F4D70
:102650006D6805F4E061090A434D6B5C4568DD4037
:1026600085603A4D6D6805F46051C90A3E4D6B5C5A
:102670004568DD40C560354D6D6805F44041890B06
:102680003A4D6B5CC568B5FBF3F5056130BD29B10A
:102690002E4A526902432D4B5A6104E02B4A52697B
:1026A00082432A4B5A61704729B1284A92690243F2
:1026B000264B9A6104E0254A92698243234B9A6132
:1026C000704729B1214AD2690243204BDA6104E004
:1026D0001E4AD26982431D4BDA61704729B11B4AF9
:1026E000D2680243194BDA6004E0184AD268824388
:1026F000164BDA60704729B1144A12690243134B32
:102700001A6104E0114A12698243104B1A61704742
:1027100012494039086070470F49C86470470B4937
:10272000C87170470948406A40F0807007494862A4
:10273000704701460020054A92680A400AB101200C
:1027400000E0002070470149887270470010024085
:102750000000FFF8FFFFF6FE000042428004424204
:1027600000127A0000093D00E1000020F100002085
:1027700010B50446FE48844208D10121C014FFF779
:10278000ADFF0021E014FFF7A9FFC4E0B4F1804FD2
:1027900008D101210846FFF7AEFF00210120FFF715
:1027A000AAFFB8E0F348844208D101210220FFF7D4
:1027B000A2FF00210220FFF79EFFACE0EE4884421A
:1027C00008D101210420FFF796FF00210420FFF724
:1027D00092FFA0E0E948844208D101210820FFF7D8
:1027E0008AFF00210820FFF786FF94E0E448844236
:1027F00008D101211020FFF77EFF00211020FFF7F4
:102800007AFF88E0DF48844208D101212020FFF7C9
:1028100072FF00212020FFF76EFF7CE0DA4884423F
:1028200008D101214014FFF759FF00216014FFF780
:1028300055FF70E0D548844209D10121C804FFF753
:102840004DFF00214FF40020FFF748FF63E0D04820
:10285000844209D101210805FFF740FF00214FF410
:102860008010FFF73BFF56E0CA48844209D101219E
:102870004805FFF733FF00214FF40010FFF72EFF4C
:1028800049E0C548844208D101214020FFF733FFC9
:1028900000214020FFF72FFF3DE0C048844208D1CF
:1028A00001218020FFF727FF00218020FFF723FF71
:1028B00031E0BB48844208D101218015FFF71BFF9E
:1028C0000021A015FFF717FF25E0B648844209D183
:1028D00001210804FFF702FF00214FF48030FFF7C9
:1028E000FDFE18E0B048844209D101214804FFF7F9
:1028F000F5FE00214FF40030FFF7F0FE0BE0AB488F
:10290000844208D101218804FFF7E8FE00214FF43A
:102910008020FFF7E3FE10BD00220288944B98420E
:102920000ED0994B98420BD0B0F1804F08D0914B0C
:10293000984205D0904B984202D0904B984204D1D7
:102940004FF68F731A404B881A438D4B984207D02D
:102950008C4B984204D04FF6FF431A40CB881A4361
:1029600002808B8883850B880385814B98420BD02E
:10297000854B984208D08B4B984205D08A4B9842A1
:1029800002D08A4B984201D10B7A038601238382BD
:10299000704770B5002400220023058C4FF6FE76A8
:1029A00035400584028C8388048B4FF68F752C404C
:1029B000B51E2C400D882C43751E2A400D892A43D4
:1029C0004D882A436A4DA8420BD06F4DA84208D0CB
:1029D000744DA84205D0744DA84202D0734DA84250
:1029E00013D14FF6F7752A404D892A434FF6FB75F0
:1029F0002A408D882A434FF6FF652B404FF6FF553E
:102A00002B408D892B43CD892B4383800483CD8834
:102A10008586028470BD70B5002400220023058CD9
:102A20004FF6EF7635400584028C8388048B48F698
:102A3000FF752C404FF6FF452C400D884FF6FF7672
:102A400006EA05252C434FF6DF752A400D8906EA74
:102A500005152A434D8806EA05152A43444DA84228
:102A600002D0494DA8421DD14FF67F752A404D89AD
:102A70004FF6FF7606EA05152A434FF6BF752A4042
:102A80008D8806EA05152A434FF6FF352B404FF295
:102A9000FF752B408D8906EA85052B43CD8906EA13
:102AA00085052B4383800483CD880587028470BD10
:102AB00070B5002400220023058C4FF6FF663540D8
:102AC0000584028C8388848B4FF68F752C404FF6DB
:102AD000FC752C400D882C434FF6FF552A400D897C
:102AE0004FF6FF7606EA05252A434D8806EA0525B6
:102AF0002A431F4DA84202D0234DA8421DD14FF2B8
:102B0000FF752A404D894FF6FF7606EA05252A43D0
:102B10004FF6FF352A408D8806EA05252A434EF6F2
:102B2000FF752B404DF6FF752B408D8906EA051584
:102B30002B43CD8906EA05152B4383808483CD88FA
:102B40008587028470BD70B5002200230024058CA7
:102B50004EF6FF7635400584038C8488828B48F6D8
:102B6000FF752A404FF6FF452A400D8820E00000FF
:102B7000002C01400004004000080040000C004010
:102B8000001000400014004000340140004C01409F
:102B9000005001400054014000180040001C00405B
:102BA0000020004000400140004401400048014036
:102BB0004FF6FF7606EA05252A434DF6FF752B40B2
:102BC0000D8906EA05352B434D8806EA05352B436A
:102BD000FA4DA84202D0FA4DA84208D14BF6FF7533
:102BE0002C408D894FF6FF7606EA85152C438480AC
:102BF0008283CD88A0F84050038470BD828B4FF251
:102C0000FF331A408283828B4FF6FF7303EA01235E
:102C10001A4382837047F0B50C4615460022002106
:102C20000026078C4EF6FF7C07EA0C070784828B90
:102C3000018C4FF6FF7707EA043640F6FF473A402B
:102C40004FF6FF7707EA05273A434FF6FF7707EA83
:102C500003373A43D94FB8420ED0D94FB8420BD0C0
:102C6000B0F1804F08D0D74FB84205D0D64FB84208
:102C700002D0D64FB84206D14DF6FF77394046F420
:102C80008057394305E047F6FF57394044F48057F1
:102C9000394382830184F0BD828B4FF6F3731A406F
:102CA0008283828B0A4382837047F0B50C461546B7
:102CB000002200210026078C4FF6FF6C07EA0C0764
:102CC0000784828B018C4FF6FF7707EA04264FF6C4
:102CD0000C773A404FF6FF7707EA03172F433A4342
:102CE000B64FB8420ED0B64FB8420BD0B0F1804FBD
:102CF00008D0B44FB84205D0B34FB84202D0B34F5A
:102D0000B84206D14FF6FF57394046F48077394331
:102D100005E04FF2FF57394044F48077394382830E
:102D20000184F0BD028B4FF2FF331A400283028B05
:102D30004FF6FF7303EA01231A4302837047F0B58D
:102D40000C461546002200210026078C4FF6EF7C2A
:102D500007EA0C070784028B018C4FF6FF7707EA1E
:102D6000041640F6FF473A404FF6FF7707EA03376D
:102D70003A434FF6FF7707EA05273A438F4FB842A9
:102D80000ED08F4FB8420BD0B0F1804F08D08D4F8E
:102D9000B84205D08C4FB84202D08C4FB84206D111
:102DA0004FF6DF77394046F01007394305E04FF61C
:102DB0005F77394044F01007394302830184F0BD46
:102DC000028B4FF6F3731A400283028B0A4302838D
:102DD0007047F0B50C46154600220021068C4FF6D0
:102DE000FE773E400684028B018C4FF60C76324013
:102DF0007E1C06EA03162E433243704EB0420ED0BC
:102E00006F4EB0420BD0B0F1804F08D06D4EB04243
:102E100005D06D4EB04202D06C4EB04206D14FF696
:102E2000FD76314044F00106314305E04FF6F5767A
:102E3000314044F00106314302830184F0BD70B596
:102E400005460C465D4885420ED05D4885420BD054
:102E5000B5F1804F08D05B48854205D05A4885427D
:102E600002D05A48854200D100E000BF208850B906
:102E70002389A28861882846FFF7ABFFE1882846AE
:102E8000FFF79EFF25E0208804280AD12389A28825
:102E900061882846FFF753FFE1882846FFF742FF85
:102EA00017E0208808280AD12389A288618828464B
:102EB000FFF7FBFEE1882846FFF7EEFE09E02389D5
:102EC000A28861882846FFF7A6FEE1882846FFF71A
:102ED00095FE70BD2DE9F04105460C460026012700
:102EE000608808B9022600E00026A088012801D1E8
:102EF000022700E001272088A0B92389A2886188E1
:102F00002846FFF766FFE1882846FFF759FF238927
:102F10003A4631462846FFF712FFE1882846FFF778
:102F200001FF13E02389A28861882846FFF707FF85
:102F3000E1882846FFF7F6FE23893A4631462846BF
:102F4000FFF747FFE1882846FFF73AFFBDE8F08129
:102F50000A884B881A438B881A43CB881A430B89FB
:102F60001A434B891A438B891A43A0F844207047AF
:102F70004FF6FF71818000210180C1804180017284
:102F800070470021018041808180C18001814181A1
:102F90008181C181704700210180418001218180B0
:102FA0000021C18001817047002101804180818022
:102FB000C18001814181818170470000002C014066
:102FC000003401400004004000080040000C0040B4
:102FD00021B1028842F00102028004E002884FF62B
:102FE000FE731A400280704731B1B0F8442042F4B9
:102FF0000042A0F8442005E0B0F84420C2F30E02DD
:10300000A0F8442070471AB183890B43838102E002
:1030100083898B43838170478182704741EA020331
:10302000A0F8483070471AB183890B43838102E0CE
:1030300083898B438381704701894FF6F872114071
:10304000018170470A46002101894FF68F731940AC
:1030500011430181704730B504460D46294620468C
:10306000FFF7F0FF208940F00700208130BD2DE9F7
:10307000F04104460D4616461F46602D06D13B46DC
:10308000012231462046FFF75AFE05E03B46012269
:1030900031462046FFF79DFE29462046FFF7D2FF26
:1030A000208940F007002081BDE8F08130B50C4652
:1030B00000210189C9B24FF6FF7505EA03251543C2
:1030C00025432943018130BD2DE9F04105460E46D7
:1030D00017469846002443463A4631462846FFF7AD
:1030E000E5FF2C894FF6F870044044F007044FF6D2
:1030F0008F70044044F070042C81BDE8F081F0B57D
:1031000004460D4616461F463B4632462946204693
:10311000FFF7CCFF208940F480402081F0BD01857D
:10312000828270470A46002101884FF68F7319404A
:10313000114301807047F0B50C4615461E4600212C
:10314000002200230189028B038C4FF6F877394067
:1031500021434FF6FC473A4040F201173A434FF6FD
:10316000DD773B404FF6FF7707EA06172F433B43D7
:10317000018102830384F0BD0A460021018B4FF6D2
:103180008F7319401143018370470A460021018B58
:1031900048F6FF7319404FF6FF7303EA0223194301
:1031A000018370470A460021818B4FF68F731940C7
:1031B0001143818370470A460021818B48F6FF73D3
:1031C00019404FF6FF7303EA0223194381837047C6
:1031D00021B1028842F08002028004E002884FF6AA
:1031E0007F731A400280704721B1828842F0040246
:1031F000828004E082884FF6FB731A408280704719
:1032000021B1828842F00802828004E082884FF671
:10321000F7731A408280704721B1828842F0010220
:10322000828004E082884FF6FE731A4082807047E5
:103230000A460021018B4FF6F773194011430183B1
:1032400070470A460021018B4FF2FF7319404FF679
:10325000FF7303EA02231943018370470A460021E2
:10326000818B4FF6F77319401143818370470A46EB
:103270000021818B4FF2FF7319404FF6FF7303EA71
:1032800002231943818370470A460021018B4FF6C0
:10329000FB7319401143018370470A460021018BDB
:1032A0004FF6FF3319404FF6FF7303EA0223194329
:1032B000018370470A460021818B4FF6FB7319404A
:1032C0001143818370470A460021818B4FF6FF33FB
:1032D00019404FF6FF7303EA0223194381837047B5
:1032E0000A460021018B4FF67F7319401143018379
:1032F00070470A460021018BC1F30E014FF6FF73A0
:1033000003EA02231943018370470A460021818B97
:103310004FF67F7319401143818370470A4600219D
:10332000818BC1F30E014FF6FF7303EA02231943A9
:10333000818370470A460021018C4FF6FD731940C6
:103340001143018470470A460021018C4FF6F77340
:1033500019401143018470470A460021018C4FF641
:10336000DF7319404FF6FF7303EA02131943018418
:1033700070470A460021018C4FF67F7319404FF6C3
:10338000FF7303EA02131943018470470A460021C0
:10339000018C4FF6FF5319404FF6FF7303EA0223E7
:1033A0001943018470470A460021018C4FF2FF73D4
:1033B00019404FF6FF7303EA022319430184704753
:1033C0000A460021018C4DF6FF7319404FF6FF733A
:1033D00003EA023319430184704730B50023012406
:1033E0008C40A3B2048C9C430484048C02FA01F543
:1033F000ADB22C43048430BD30B5002304248C408E
:10340000A3B2048C9C430484048C02FA01F5ADB28F
:103410002C43048430BD70B50346002000241846B8
:10342000183001258D40ACB21D8CA5431D8409B117
:10343000082909D100EB6100056825F070050560D9
:103440000568154305600EE00D1FC5F34E052844C1
:10345000056825F4E045056005684FF6FF7606EA45
:1034600002263543056070BD21B1028842F0020298
:10347000028004E002884FF6FD731A400280704714
:1034800021B1028842F00402028004E002884FF673
:10349000FB731A400280704721B1828842F080029B
:1034A000828004E082884FF67F731A4082807047E2
:1034B00002884FF6F7731A40028002880A4302809E
:1034C000704782884FF68F731A40828082880A4341
:1034D0008280704702894FF6F8731A400281028990
:1034E0000A430281704702894FF67F731A400281B6
:1034F00002890A4302817047818470478185704741
:10350000818670470187704781877047A0F8401017
:10351000704702884FF6FF431A40028002880A4330
:10352000028070470146888E70470146088F7047B9
:103530000146888F70470146B1F840007047014648
:10354000888C70470146088D704702460020138A18
:103550000B400BB1012000E000207047CA430282FB
:10356000704730B50246002000230024158A05EA82
:103570000103958905EA010413B10CB1012000E0B3
:10358000002030BDCA4302827047000010B50446D7
:10359000FB48844209D101218803FFF79FF80021ED
:1035A0004FF48040FFF79AF832E0F648844209D1A0
:1035B00001214804FFF79FF800214FF40030FFF786
:1035C0009AF825E0F048844209D101218804FFF7E8
:1035D00092F800214FF48020FFF78DF818E0EB48B7
:1035E000844209D10121C804FFF785F800214FF476
:1035F0000020FFF780F80BE0E548844208D1012164
:103600000805FFF778F800214FF48010FFF773F8F2
:1036100010BD2DE9F04786B005460E460024A246AF
:1036200000BFA1460027B08900B100BF2F462C8AF9
:103630004CF6FF700440F08804432C82AC894EF6AF
:10364000F3100440B088318908437189084304436A
:10365000AC81AC8A4FF6FF400440B0890443AC8291
:1036600001A8FEF7B4FFC648874202D1DDF810A0DA
:1036700001E0DDF80CA0A88900F4004040B10AEB9D
:10368000CA0000EB0A1031684900B0FBF1F807E00E
:103690000AEBCA0000EB0A1031688900B0FBF1F8B0
:1036A0006420B8FBF0F004012009642101FB1089BB
:1036B000A88900F4004040B1322000EBC900B0FB03
:1036C000F1F000F00700044308E0322000EB09109D
:1036D0006421B0FBF1F000F00F0004432C8106B030
:1036E000BDE8F0874FF41651016000218180C18050
:1036F00001810C21418100218181704710B5024672
:103700000020108A4FF2FF0318400B884C88234397
:103710008C882343CC8823431843108210BD00219A
:10372000018041808180C180704721B1828942F44B
:103730000052828104E082894DF6FF731A40828133
:103740007047F0B50346002400260025002040F60F
:103750006A17B94200D100BF1846C1F3421401F004
:103760001F06012707FA06F5012C01D10C3004E0F1
:10377000022C01D1103000E014301AB107682F4339
:10378000076002E00768AF430760F0BD1AB1838AA3
:103790000B43838202E0838A8B4383827047028AD1
:1037A0004FF6F0731A400282028A0A43028270477F
:1037B00082894FF2FF731A40828182890A43828193
:1037C000704721B1828942F00202828104E082893D
:1037D0004FF6FD731A4082817047028A4FF6DF73FD
:1037E0001A400282028A0A430282704721B1028A89
:1037F00042F48042028204E0028A4BF6FF731A40D0
:1038000002827047C1F308028280704701468888AF
:10381000C0F308007047818941F001018181704740
:10382000028BD2B20283028B42EA012202837047EA
:10383000028B02F47F420283028B0A4302837047A9
:1038400021B1828A42F02002828204E0828A4FF60D
:10385000DF731A408282704721B1828A42F01002DF
:10386000828204E0828A4FF6EF731A4082827047A8
:1038700021B1828A42F00802828204E0828A4FF6F5
:10388000F7731A408282704721B1828942F4004264
:10389000828103E08289C2F30E028281704721B1E6
:1038A000828A42F40062828204E0828A4FF2FF73CD
:1038B0001A4082827047828A4FF6FB731A408282D6
:1038C000828A0A438282704721B1828A42F00202D0
:1038D000828204E0828A4FF6FD731A40828270472A
:1038E00002460020B1F5007F00D100BF13880B40D5
:1038F0000BB1012000E00020704701F40072B2F526
:10390000007F00D100BFCA430280704770B50246F5
:10391000002400230025002040F66A16B14200D1A1
:1039200000BFC1F3421501F01F03012606FA03F39D
:10393000012D02D19689334006E0022D02D1168A6C
:10394000334001E0968A33400C12012606FA04F453
:103950001688344013B10CB1012000E0002070BD86
:1039600010B50022002340F66A14A14200D100BF26
:103970000A1201249440A3B2DC43048010BD00006D
:10398000003801400044004000480040004C004026
:10399000005000404B48006828B14A480068401E6B
:1039A0004849086002E0012047490870704770B537
:1039B0004649B1F1807F00D31DE021F07F40401ED9
:1039C0004FF0E022506150170F22002807DA13074A
:1039D0001D0E3F4B00F00F04241F1D5503E013077D
:1039E0001C0E3C4B1C5400BF00204FF0E0229061A5
:1039F0000720106100BF6FF00400FDF772FE36482B
:103A000000683649B0FBF1F0354908700846007887
:103A100000EB4001C1EBC0104FF6FF7101EAC0009E
:103A20003049088070BD01462D4A12784A434FF054
:103A3000E0235A6100229A611A46126942F001029B
:103A40001A6100BF4FF0E022106900F001021AB1C4
:103A500000F48032002AF5D04FF0E022126922F003
:103A600001024FF0E0231A6100229A61704701467B
:103A70001C4A12884A434FF0E0235A6100229A619F
:103A80001A46126942F001021A6100BF4FF0E022AB
:103A9000106900F001021AB100F48032002AF5D05A
:103AA0004FF0E022126922F001024FF0E0231A6188
:103AB00000229A617047034908600021024A117090
:103AC00070470000FC000020680000204019010041
:103AD00018ED00E000E400E08000002000127A0011
:103AE000F8000020FA000020014600BF70472E4A6F
:103AF00012785AB900BF2D4A128802F04002002AFB
:103B0000F9D0C2B2294B1B1D1A800AE000BF284A17
:103B1000128802F04002002AF9D0C2B2244B1B1DC9
:103B20001A80704710B586B004460121C804FEF71C
:103B3000C8FD01211020FEF7B7FD4FF48060ADF8FD
:103B4000140003208DF8160018208DF8170005A921
:103B50001848FEF787FA4FF40060ADF8140004200F
:103B60008DF8170005A91348FEF77CFA0194002090
:103B7000ADF80800ADF80A00ADF80C00ADF8100083
:103B80000C20ADF80E0001A90948FFF742FD002204
:103B900040F225510648FFF7D4FD01210448FFF704
:103BA000C4FD06B010BD0000070000200038014031
:103BB000004C004000100140A34A0A400243A34BBE
:103BC0001A6070470146072323EA010212029F4B45
:103BD0001B1D18684FF6FF0318409D4B18431043F8
:103BE0009A4B1B1D186070472DE9F0410746884627
:103BF00014461D462846FFF7E5FFC5F1040007FA05
:103C000000F60F20284100EA0800064306F00F06E0
:103C1000E21704EBD2625211920002F1E022D2F8D4
:103C200000212146E31704EBD3635B11A4EB431C93
:103C3000012303FA0CF31A432046E31704EBD36382
:103C40005B119B0003F1E023C3F800218148005D74
:103C500040EA06107F490855BDE8F08170B504467A
:103C60000B46CE1701EB9676C6F38700CE1701EB15
:103C70009676B610A1EB8606B606350E764B9B6996
:103C800043F00103744EB3614FEAB63353F820306A
:103C90000F26AE40B343714E46F82030334653F8FA
:103CA000203004FA05F61E436C4B43F820606C4B41
:103CB0001B6801268E403343694E336002F00103D6
:103CC00043B1674B0C331B6801268E403343644E6F
:103CD0000C36336002F0020343B1614B08331E68B7
:103CE00001238B401E435E4B08331E6070BD00B540
:103CF000002059490861C86014204861002088618B
:103D0000C8610846006840F0010008600846406845
:103D100054490840504948600846006852490840E4
:103D20004D4908600846006820F480200860084675
:103D3000406820F4FE0048600020886000214FF0B9
:103D40000060FFF739FF00BD10B54048083000683B
:103D500040F004003D49083108603F48C06940F028
:103D600080503D49C8614148406840F480703F49F7
:103D700048600846006840F0040008600846006893
:103D800040F002000860FCF7DDF910BD3048001D6E
:103D90002E49091D08607047014649062E4A92695E
:103DA00042F001022C4B9A612C4A083A526822F0E8
:103DB000E0622A4B083B5A601A4652680A435A602E
:103DC000704730B504460025FFF791FF2248006890
:103DD00040F480302049086000BF1F480068400C54
:103DE0000028FAD04FF480601B494860A01EC4B27E
:103DF0000846406840EA844048600846406840F40D
:103E0000803048601A48006840F032001849086065
:103E10001148006840F080700F49086000BF0E48EC
:103E20000068400E0028FAD00B48406840F00200BD
:103E30000949486005E008484068C0F3870505F077
:103E40000305022DF7D130BD80FFFF1F08ED00E014
:103E50000000FA0500E400E0001002400800014004
:103E6000000401400000FFF8FFFFF6FE0070004074
:103E70000020024008B501211020FEF715FC0E209D
:103E8000ADF8000010208DF8030003208DF802002B
:103E900069460D48FEF7E6F808BD18B900210B4A3F
:103EA00011600FE00A490968491C094A1160814202
:103EB00008D106490968C943064AC2F8841100219D
:103EC000034A116070470000001001408401224243
:103ED000040100200000224208B501210820FEF75D
:103EE000E3FB0820ADF8000048208DF80300694688
:103EF0004B48FEF7B7F808BD01464A48006828B9A4
:103F000049480088401C484A108002E00020464A88
:103F100010804448006828B94448007810B901204E
:103F2000424A107042480078B0B9404800780128F1
:103F300007D140480078401C3E4A107001203C4A9E
:103F400010703C480078022806D10020394A1070D1
:103F5000394A10800220704732480068012804D195
:103F60000020324A1070324A10703248007801281E
:103F70001CD131480088401C2F4A10801046008810
:103F800088420ADD28480088884206DA0020294A4B
:103F90001070294A10800120DDE7234800888842FC
:103FA00004DD0020234A1070234A10800020D2E74D
:103FB0002248007838B11B48006820B900201F490A
:103FC00008700120704717480068012801D11B497B
:103FD00008700020F6E71A48008840B911480068C8
:103FE00028B918480088401C1649088002E00020C3
:103FF0001449088013480088C82807DD01201049AB
:10400000088000200F490880012070470C48008874
:10401000012802D100200A4908800020F5E70000AD
:10402000000C01400C8121420E01002008010020FB
:10403000090100200A0100200C01002010010020CD
:10404000140100201201002010B50A461AB1012304
:10405000FE4C236002E00023FC4C2360002116E0AC
:104060000023FA4C3434236000F080031BB1012399
:10407000241D236003E00023F44C38342360012323
:10408000F24C343423604306180E4B1CD9B2082975
:10409000E6DB0123ED4C236010BD30B500241CE0AD
:1040A00004F1B001C8B20021FFF7CEFF002108469D
:1040B000FFF7CAFF00211020FFF7C6FF002508E028
:1040C000E34901EBC501085D0121FFF7BDFF681C55
:1040D000C5B2802DF4DB601CC4B2082CE0DB30BD1F
:1040E00000B500218D20FFF7AFFF00211420FFF75E
:1040F000ABFF0021AF20FFF7A7FF00BD00B50021F7
:104100008D20FFF7A1FF00211020FFF79DFF002168
:10411000AE20FFF799FF00BD30B500240CE000256C
:1041200006E00020CA4901EBC5010855681CC5B26C
:10413000802DF6DB601CC4B2082CF0DBFFF7ADFF6E
:1041400030BDF0B5144600267F2801DC3F2900DD94
:10415000F0BD0B46CF1701EB5777FF10C7F10707EC
:10416000FAB2CF1701EB5777FF10A1EBC707FDB2EB
:10417000C5F107070123BB40DEB24CB1B44B03EBE2
:10418000C0039B5C3343B24F07EBC007BB5408E04E
:10419000AF4B03EBC0039B5CB343AD4F07EBC007D2
:1041A000BB5400BFD4E72DE9F04F80460C461546BE
:1041B0001E46A346A5F12000C5B200273EE00C2E06
:1041C00007D105EB4500A34901EB800010F80790EB
:1041D00004E0A14800EB051010F807904FF0000A2A
:1041E00026E009F0800028B121464046099AFFF7F1
:1041F000A8FF09E0099808B9012000E00020024664
:1042000021464046FFF79DFF4FEA49604FEA10699B
:10421000601CC4B2A4EB0B00B04205D15C4608F1AF
:10422000010000F0FF0806E00AF1010000F0FF0ABB
:10423000BAF1080FD5DB00BF781CC7B2B742BEDBAE
:10424000BDE8F08F10B50246012000E050430B009E
:10425000A1F10104E1B2F9D110BD2DE9FF4F81B008
:10426000074691461E460E9D4FF0000A002439E095
:10427000301B401EC1B20A20FFF7E4FFB9FBF0F08B
:104280000A21B0FBF1F201FB1208BAF1000F16D1BE
:10429000701EA04213DDB8F1000F0ED10120AB4615
:1042A00005EBDB71491001FB04710090C8B22B468D
:1042B00020220299FFF777FF12E04FF0010A012058
:1042C000AB4605EBDB71491001FB04710090C8B2ED
:1042D00008F13001CAB22B460299FFF764FF00BF14
:1042E000601CC4B2B442C3DB05B0BDE8F08F78B542
:1042F00005460E46144618E07A2D03DD002506F12A
:104300001000C6B23A2E04DD002005460646FFF72F
:1043100003FF0120009022780C2331462846FFF746
:1043200042FF05F10800C5B2641C20780028E3D1E3
:1043300078BD08B501211020FEF7B6F90121084625
:10434000FEF7B2F94EF20100ADF8000010208DF832
:10435000030002208DF8020069464048FDF782FE06
:104360000120FDF7D8FF0020FEF70BF90020FDF734
:104370000AFC0020FDF7CFFF002034493C310860E3
:104380006420FFF774FB01203549C1F8BC0100210E
:10439000AE20FFF759FE0021D520FFF755FE002182
:1043A0005020FFF751FE0021A820FFF74DFE00210D
:1043B0003F20FFF749FE0021D320FFF745FE0021F3
:1043C0000846FFF741FE00214020FFF73DFE002197
:1043D0008D20FFF739FE00211420FFF735FE002164
:1043E0002020FFF731FE00210220FFF72DFE0021E3
:1043F000A120FFF729FE0021C020FFF725FE0021A4
:10440000DA20FFF721FE00211220FFF71DFE002118
:104410008120FFF719FE0021EF20FFF715FE002194
:10442000D920FFF711FE0021F120FFF70DFE00213A
:10443000DB20FFF709FE00213020FFF705FE0021F9
:10444000A420FFF701FE0021A6200BE080012242FC
:1044500038060020FCD3000870D800080010014086
:1044600000002242FFF7F0FD0021AF20FFF7ECFD36
:10447000FFF752FE08BD000000B587B001214FF4E0
:104480000170FEF711F94FF40040FEF771F81020AB
:10449000ADF8040000208DF8070001A92C48FDF7B5
:1044A000E1FD2C48FDF73CF9002002908DF80C004E
:1044B0008DF80D004FF4602004900020059001203D
:1044C0008DF8180002A92348FDF751F90121214870
:1044D000FDF779F91F48FDF798F900BF1D48FDF772
:1044E00099F90028FAD11B48FDF79EF900BF194839
:1044F000FDF79FF90028FAD107B000BD0146012061
:1045000070471549088070472DE9FE4F1248008812
:1045100007F067FA4FF06632104BCDE9000107F063
:1045200060F9804600220E4B07F05BF90646002238
:104530000C4B07F056F9044600220B4B07F0C3F969
:10454000824607F088FA02900298BDE8FE8F0000CC
:1045500000080140002401401601002066660A4060
:1045600000003540000059400000B04030B585B033
:1045700005460C4601210220FEF7A3F80121182070
:10458000FEF792F80120ADF8100028208DF81300F6
:1045900004A9FA48FDF766FD0220ADF810001020CE
:1045A0008DF8130002208DF8120004A9F348FDF7DE
:1045B00059FDADF80850ADF804400020ADF80A00F0
:1045C000ADF8060001A9EE48FEF7A6F90820ED496E
:1045D000088000204880012088800020C880088151
:1045E000E748FEF72CFC1D208DF8000002208DF816
:1045F000010000208DF8020001208DF803006846BC
:10460000FDF725F801220921DD48FEF7FCFC012118
:10461000DB48FEF7DDFC05B030BD10B50120DA49FE
:1046200008600F20FFF7FFF90020D849C1F8840186
:10463000D748007800F08000E8B1D548007800F055
:104640003F00D44908600846008800040860084616
:104650000068D14909880844CE49086008460068C6
:10466000AA2148434FF47A71B0FBF1F0C9490860C0
:104670000020C749088010BDC14910310888C449CD
:10468000097801F0800100294ED100F00101D1B17B
:10469000BF49097801F04001A9B1BD49097801F08D
:1046A0003F013F290AD1BA49098841F08001B84A3F
:1046B00011804FF6FF71B84A118004E0B4490988AF
:1046C000491CB34A118000F0080169B3B049097868
:1046D00001F0400199B1AE49098841F08001AC4A2E
:1046E0001180A7493C310988AB4A1180A449203187
:1046F000098821F40071A24A2032118014E00021BF
:10470000A34A1180A44A1180A149098841F04001BF
:104710009F4A118000219A4A24321180111F098872
:1047200041F40071121F11800021954A103211804E
:10473000704730B589B004460D4601214803FDF7A6
:10474000B3FF01211020FDF7AFFF01210846FDF75F
:10475000ABFFC020ADF8200004208DF8230008A98D
:104760008E48FDF77FFCC0218C48FDF72AFD8C4860
:10477000FEF762FCADF814500020ADF81600ADF85D
:104780001840ADF81A0005A98548FEF7C5F80020C5
:10479000ADF80400ADF806000120ADF808000020D7
:1047A000ADF80A00ADF80C0001A97D48FEF747FB03
:1047B0000420ADF8040001A97948FEF740FB2E2043
:1047C0008DF8100001208DF8110000208DF81200E6
:1047D00001208DF8130004A8FCF739FF2C208DF878
:1047E000100004A8FCF733FF07216D48FEF7CAFE4E
:1047F000012207216A48FEF706FC01216848FEF7FE
:10480000E7FB09B030BD10B56648007800F08000C5
:10481000002842D102216248FEF7A3FE00283CD0C6
:1048200002215F48FEF7AEFE5E48007800F04000CF
:1048300020B35B48FEF776FE5B4908800846008897
:104840005A490988884204DA4FF6FF7058490860CF
:1048500002E00020564908605348008853490988FF
:10486000401A5349096808445249086000204D49DC
:10487000087000214A48FEF75DFD0EE04848FEF74B
:1048800051FE4A4908804748007840F040004549B9
:10489000087002214248FEF74DFD4748007800F0BD
:1048A0008000002841D104213D48FEF75AFE60B344
:1048B00004213B48FEF766FE3F48007800F04000C8
:1048C00020B33748FEF731FE3C490880084600888F
:1048D0003B490988884204DA4FF6FF70394908607D
:1048E00002E00020374908603448008834490988CC
:1048F000401A3449096808443349086000202E49A9
:10490000087000212648FEF727FD0EE02448FEF738
:104910000CFE2B4908802848007840F040002649CA
:10492000087002211E48FEF717FD10BD10B50121C9
:104930001B48FEF727FE10BDF0B58DB004460F46AC
:1049400015460026052C0FDA04EB04101F4911F858
:104950002000012801D10DB0F0BD012004EB0411AD
:104960001A4A02F8210000E0F5E7022C30DC04F1DD
:104970001C00C0B28DF8200035E00000000C0140A2
:1049800000040040380A0020848121420080214236
:1049900018010020340000201A01002000100140FE
:1049A000003401401C010020200100201E010020D5
:1049B00034010020580000202201002026010020A0
:1049C00024010020380100205C000020440A00205F
:1049D000032C03D132208DF8200004E0042C02D1F6
:1049E00037208DF8200001208DF8210000208DF85F
:1049F000220001208DF8230008A8FCF728FE684655
:104A0000FDF7E5FD04EB0410E04901EB8000456093
:104A100004EB041001EB80004068DD49B1FBF0F0CD
:104A2000401E80B2ADF818000198B0FBF1F0401EB6
:104A300080B2ADF814000020ADF81A00ADF81600F1
:104A40002020ADF82400B0B2ADF82A000020ADF867
:104A50002C00032C02D0042C44D121E00121082099
:104A6000FDF72FFE05A9CB48FDF756FF09A9C94858
:104A7000FDF78FFF0021C748FEF7DAFB0121C5488B
:104A8000FEF7A6FB0321C348FEF77CFD01220321AC
:104A9000C048FEF7B8FA0121BE48FEF799FA21E0B6
:104AA00001212020FDF70DFE05A9BB48FDF734FFCD
:104AB00009A9B948FDF76DFF0021B748FEF7B8FB1B
:104AC0000121B548FEF784FB0321B348FEF75AFDE8
:104AD00001220321B048FEF796FA0121AE48FEF705
:104AE00077FA00BF00BF00BF35E7014601EB0110B8
:104AF000A64A02EB8000704730B501B930BD00EB2B
:104B00000013A24C04EB83035B780F2B00D1F5E775
:104B100000220CE000EB00139C4C04EB83030833F1
:104B200053F822308B4200D1E8E7531CDAB200EB95
:104B30000013964C04EB83035B789342EADC00EBB2
:104B4000001304EB8303083300EB00148F4D05EBD7
:104B50008404647843F8241000EB00132C4604EB23
:104B600083035B785B1C00EB001405EB840463702B
:104B700000BFC3E710B5002402218648FEF7F1FC10
:104B800020B102218348FEF7FDFC15E00121814898
:104B9000FEF7E7FC80B101217E48FEF7F3FC7B487D
:104BA00090F8CD4006E0601EC4B27849D43151F887
:104BB00024008047002CF6DC10BD10B50024022133
:104BC0007548FEF7CEFC20B102217348FEF7DAFCEF
:104BD00014E001217048FEF7C4FC78B101216E4851
:104BE000FEF7D0FC694890F8114105E0601EC4B2A0
:104BF0006A4951F824008047002CF7DC10BD0020E2
:104C000000BF31E000EB4001654A12F8111049B3D2
:104C100000EB400102EB41018988491C00EB400296
:104C20005F4B03EB4202918000EB40011A4602EB1E
:104C30004101898800EB400203EB42025288914215
:104C400010DB002100EB400203EB420291800121C6
:104C500000EB400203EB42025170002100EB4002E6
:104C600003F81210411CC8B24E4909788842C9DBCA
:104C7000704730B505460C464A480570AFF28101D1
:104C80002046FFF739FF30BD30B50246002400232F
:104C9000454800781044434D2D78A84214DA00BFEF
:104CA0000EE049B1404800780870491C3E48007841
:104CB000401C3D4D287001E0002030BD581CC3B29F
:104CC0009342EEDB012401E00020F6E72046F4E702
:104CD000024634480078824207DA02EB4200304B49
:104CE00003EB40004180012070470020FCE70146B3
:104CF0002C480078814206DA012001EB4102284B62
:104D000003F8120070470020FCE7014625480078B0
:104D1000814207DA002001EB4102214B03F8120027
:104D2000012070470020FCE701461E4800788142C0
:104D300006DA01EB41001A4A02EB40004078704766
:104D40000020FCE7014617480078814206DA01EBB3
:104D50004100134A02EB4000808870470020FCE7C6
:104D600001461048007881420DDA002001EB410233
:104D70000B4B03EB4202507001EB410203EB42028A
:104D80009080012070470020FCE70000440A0020CA
:104D900040420F00000C0040001400405C0B00205B
:104DA000980B0020440100204501002008B5012196
:104DB0001020FDF779FC4FF49850ADF8000010205A
:104DC0008DF8030003208DF8020069463348FDF793
:104DD00049F901210420FDF767FC4FF40040ADF8CC
:104DE000000010208DF8030003208DF802006946B2
:104DF0002B48FDF737F908BD30B589B005460C469C
:104E0000FFF7D4FF0121C802FDF74EFC0121042069
:104E1000FDF74AFC4FF41060ADF8200018208DF823
:104E2000230003208DF8220008A91D48FDF71AF978
:104E3000ADF81850ADF814400020ADF81A00ADF8E8
:104E4000160005A91748FDF767FD6020ADF80400BE
:104E50000120ADF806000020ADF80A00ADF80C0006
:104E600001A91048FDF795FD01A90E48FDF76BFE5D
:104E700001210C48FEF7B8F808210A48FEF7D8F9D6
:104E800008210848FEF7F3F901210648FEF7A0F9CA
:104E900001210448FEF79CF809B030BD0010014024
:104EA00000080140002C014000B587B001210846F0
:104EB000FDF707FC01210420FDF7F6FB0320ADF808
:104EC000000004208DF8030069466048FDF7CAF829
:104ED00004A8FEF74DF80020ADF810004FF6FF7063
:104EE000ADF814000020ADF81600ADF8120004A9CA
:104EF0004FF08040FDF710FD00231A4603214FF0CC
:104F00008040FEF718F901A8FEF745F80A20ADF831
:104F10000C0001A94007FDF792FF01218807FEF769
:104F20001DFB012211469007FEF76DF800214FF09E
:104F30008040FEF7E1FA01218807FEF749F807B043
:104F400000BD00B587B001210420FDF7BAFB0121A7
:104F50000820FDF7A9FBC020ADF8000004208DF863
:104F6000030069463A48FDF77DF804A8FEF700F80B
:104F70000020ADF810004FF6FF70ADF814000020CF
:104F8000ADF81600ADF8120004A93248FDF7C4FCD4
:104F900002231A4603212F48FEF7CDF801A8FDF79A
:104FA000FAFF0A20ADF80C0001A92A48FDF747FFD7
:104FB00001212848FEF7D2FA012211462548FEF7C2
:104FC00022F800212348FEF797FA01212148FDF736
:104FD000FFFF07B000BD0146022904D0032907D016
:104FE000042911D10BE04FF08042928C10B20DE0F9
:104FF000194A128810B20022174B1A8006E0154A8F
:105000002432128810B201E0002000BF00BF7047B8
:105010001048103000880F481030008820F0010040
:105020000C491031088000200A492431088070475B
:105030004FF08040008A4FF08040008A20F001004D
:105040004FF08041088200208884704700080140AA
:10505000000C0140000800402404004008B5012174
:105060000820FDF721FB4FF44060ADF80000102050
:105070008DF8030003208DF802006946F748FCF71D
:10508000F1FF08BD10B5F548001D006820F4704020
:10509000F249091D08600846006840F44050086065
:1050A0000120EF490860EF48D0F82C0108B9002032
:1050B00010BD0120EA49091F0860FEF7B4FC00207A
:1050C000E849C1F8AC01E6488038006808B1002022
:1050D000EEE70120FEF7A7FC0020E149091F086068
:1050E0000120E5E710B5DD48001D006820F47040A0
:1050F000DA49091D08600846006840F4405008601D
:105100000020D749091F0860D649C1F8AC01012029
:10511000FEF789FC0120D249091F0860D149C1F876
:10512000AC01FEF780FC10BD10B50024CB48001D7B
:10513000006820F47040C949091D086008460068ED
:1051400040F4004008600120C5490860FEF76BFC90
:105150000120C449C1F8A801FEF765FC0AE0601C03
:10516000C4B2322C03DDFFF7BDFF002010BD0120CB
:10517000FEF759FCBA48803800680028EFD1B849DA
:10518000091F08600120F1E710B50020B449091F8C
:105190000860B248001D006820F47040AF49091D46
:1051A00008600846006840F4405008600020AD499F
:1051B000C1F8AC010120FEF736FC0120A849091F07
:1051C0000860FEF730FC0020A649C1F8A80110BD18
:1051D00010B50020A249091F0860A048001D006802
:1051E00020F470409D49091D08600846006840F49D
:1051F0004050086001209B49C1F8AC01FEF713FC48
:1052000001209749091F0860FEF70DFC0020954911
:10521000C1F8A80110BD70B504469048001D006893
:1052200020F470408D49091D08600846006840F46C
:105230004050086000208A49091F0860002516E0D8
:10524000E009874908606006040E0120FEF7EBFBC9
:1052500001208449C1F8A801FEF7E5FB0020804940
:10526000091F08600120FEF7DEFB681CC5B2082D8F
:10527000E6DB70BD2DE9F04105460E46174698461F
:10528000FFF700FF10B90120BDE8F0816906080EA4
:10529000FFF7C1FFFFF748FF18B9FFF723FF012011
:1052A000F2E73046FFF7B7FFFFF73EFF00240BE0C1
:1052B00018F80400FFF7AFFFFFF736FF18B9FFF744
:1052C00011FF0020E0E7641CBC42F1DBFFF70AFF9E
:1052D0000020D9E770B5054600246048001D00682D
:1052E00020F470405D49091D08600846006840F4DC
:1052F00000400860002617E000205949091F086097
:105300000220FEF790FB01205649C1F8A801600673
:10531000040E53488038006808B1601CC4B20220F3
:10532000FEF781FB701CC6B2082EE5DB15B1FFF756
:105330002BFF01E0FFF74CFF204670BD2DE9F04147
:1053400006460F4614461D46FFF79CFE10B9012085
:10535000BDE8F0817106080EFFF75DFFFFF7E4FE80
:1053600018B9FFF7BFFE0120F2E73846FFF753FFF9
:10537000FFF7DAFEFFF786FE012101EB4601C8B216
:10538000FFF749FFFFF7D0FE0DE0012C04D100200C
:10539000FFF7A0FF287003E00120FFF79BFF2870B4
:1053A0006D1C601EC4B2002CEFD1FFF79BFE0020E5
:1053B000CEE770B505460E460024FFF763FE28468B
:1053C000FFF729FF641CFFF7AFFE3046FFF723FF0E
:1053D000641CFFF7A9FEFFF755FE691CC8B2FFF772
:1053E0001AFF641CFFF7A0FE0020FFF773FF0446BE
:1053F000FFF778FE204670BD2DE9F041074688464C
:1054000015461E460024FFF73DFE3846FFF703FF12
:10541000FFF78AFE4046FFF7FEFEFFF785FEFFF727
:1054200031FE791CC8B2FFF7F6FEFFF77DFE00BF24
:105430000DE0681EA04204D00120FFF74BFF30555D
:1054400003E00020FFF746FF3055601CC4B2AC42B9
:10545000EFDBFFF747FE2046BDE8F081000C01407E
:10546000AC812142008021422DE9F04180460D4669
:1054700016461F460024FFF705FE4046FFF7CBFE09
:10548000FFF752FE2846FFF7C6FEFFF74DFE00BFAE
:1054900006E0385DFFF7BFFEFFF746FE601CC4B2B2
:1054A000B442F6DBFFF71EFE0120BDE8F08170B5C7
:1054B00005460E46144631462846FFF77AFF20700F
:1054C000012070BD37B504460D4602AB01222946C6
:1054D0002046FFF7C9FF3EBD2DE9F8430746884641
:1054E00014461D46089E6A4641463846FFF7DFFFD0
:1054F00028B3601CFF2101FA00F0C4F1080129441F
:10550000491EFF220A41104300F0FF09C5F10800BF
:1055100006FA00F0C6B2C4F1070006419DF800008B
:1055200000EA090000909DF80000304300909DF8CB
:10553000002041463846FFF7C5FFBDE8F88300204C
:10554000FBE7F8B506460F4614461D466A4639463F
:105550003046FFF7ACFF2DB10120A0409DF80010B0
:10556000084305E00120A0409DF8001021EA00005A
:10557000C0B200909DF8002039463046FFF7A2FFE8
:10558000F8BD00001FB501210846FDF78DF8012187
:105590000820FDF789F80420ADF80C0048208DF8AC
:1055A0000F0003A91148FCF75DFD02210120FCF763
:1055B0006FFE0420019000208DF808000C208DF86B
:1055C000090001208DF80A0001A8FCF76BFC0820F7
:1055D0008DF8000001208DF801008DF802008DF893
:1055E00003006846FCF733F81FBD0000000C0140C3
:1055F000C848C9494860C94848607047C6480069FA
:1056000040F08000C44908617047C348C16801F098
:10561000010008B10120704701F0040008B1022028
:10562000F9E701F0100008B10320F4E70020F2E7E9
:1056300070B5044600BFFFF7E8FF0546012D00D016
:1056400006E00120FEF7EFF9601E84B2002CF2D1D3
:1056500000BF04B9FF25284670BD70B5054600247B
:1056600045F6FF70FFF7E4FF0446C4B9AA48006995
:1056700040F00200A849086108464561006940F011
:105680004000086145F6FF70FFF7D2FF0446012C89
:1056900005D0A148006920F002009F49086120461A
:1056A00070BD70B505460E46FF20FFF7C1FF0446EA
:1056B00094B99948006940F00100974908612E802B
:1056C000FF20FFF7B5FF0446012C05D09248006982
:1056D00020F0010090490861204670BD014608880D
:1056E00070472DE9F04105460E461746002407E0B5
:1056F00036F814102846FFF7D4FFAD1C601C84B2A6
:10570000BC42F5DBBDE8F08130B503460C461546DA
:10571000002207E01846FFF7E1FF24F812009B1C67
:10572000501C82B2AA42F5DB30BD2DE9F05F804605
:105730008A461746B8F1006F02D37948804501D3F5
:10574000BDE8F09FFFF754FFA8F1006B4FEADB259F
:10575000CBF34909C9F58064A74200DC3C464EE022
:105760004FF0006101EBC5204A146E49FFF7CCFFF2
:1057700000260BE009EB06006A4931F810004FF6ED
:10578000FF71884200D003E0701C86B2A642F1DBB4
:1057900000BFA6421BDA4FF0006101EBC520FFF706
:1057A0005CFF002608E03AF8160006EB09015D4AA6
:1057B00022F81100701C86B2A642F4DB4FF00061A3
:1057C00001EBC5204A145749FFF78BFF04E022463E
:1057D00051464046FFF785FFA74200D110E06D1CFF
:1057E0004FF000090AEB440A08EB4408381B87B263
:1057F000B7F5806F02DD4FF4806400E03C46AFE710
:1058000000BFFFF7FBFE00BF9AE713B50446012275
:1058100001A92046FFF789FF1CBD10B50A224249A5
:105820004248FFF771FF404800884FF6FF718842F9
:1058300018D13D484088884214D13B48808888422E
:1058400010D13948C08888420CD13948394908609C
:1058500039483A4908603A483A4908603A483B4969
:10586000086027E03049088806F0A5F80446384962
:1058700005F0D2FE2F4908602B49488806F09BF8B6
:105880000446334905F0C8FE2C490860264988883B
:1058900006F091F804462E4905F0BEFE294908603D
:1058A0002149C88806F087F80446294905F0B4FE66
:1058B0002649086010BD10B525491E48006805F04E
:1058C00079FE044606F0B3F82249088020491B48B7
:1058D000006805F06FFE044606F0A9F81D494880EF
:1058E0001B491848006805F065FE044606F09FF85D
:1058F0001849888016491548006805F05BFE044683
:1059000006F095F81349C8800A220848FFF70DFFF2
:1059100010BD00002301674500200240AB89EFCD98
:1059200000000408B60B0020D002002000E00008B0
:105930000080934344000020A470BD3F4800002035
:105940003D8ACE424C000020295C0F3F50000020D1
:105950000000C842E402002010B586B004460121D0
:105960000420FCF7A1FE01218803FCF79DFE4FF403
:105970000070ADF8140003208DF8160018208DF883
:10598000170005A9F948FCF76DFB4FF48060ADF8EE
:10599000140004208DF8170005A9F448FCF762FBF9
:1059A00025208DF8000000208DF8010001208DF8E1
:1059B00002008DF803006846FBF749FE01940020C1
:1059C000ADF80800ADF80A00ADF80C00ADF8100015
:1059D0000C20ADF80E0001A9E548FDF71AFE0122E2
:1059E00040F22551E248FDF7ACFE0121E048FDF709
:1059F0009CFE06B010BD2DE9FF5F40F22551DC484A
:105A0000FDF784FF002874D040F22551D848FDF7F7
:105A1000A7FF0120D7490870D548FDF7F7FED64902
:105A2000086008460078D5490870D34800685928AE
:105A300002D10220D2490870CF480068582802D10C
:105A40000120CF490870CC480068622807D1CD48B2
:105A5000007808B9012000E00020CA490870C64853
:105A60000068612807D1C848007808B9012000E023
:105A70000020C5490870C548007820B1C2480078A8
:105A8000401CC2490870BC4800680A286ADD002032
:105A9000BF490860BF490860B74800685A2809D163
:105AA0000020BD490870BD490870BD490870BD4956
:105AB000087057E0B048006841280AD10120B64973
:105AC00008700020B5490870B5490870B5490870DC
:105AD00048E0A948006845280CD10020AE4908706C
